{
  "_format": "hh-sol-artifact-1",
  "contractName": "OrbIdSwapRelay",
  "sourceName": "src/OrbIdSwapRelay.sol",
  "abi": [
    {
      "inputs": [
        {
          "internalType": "address",
          "name": "_permit2",
          "type": "address"
        },
        {
          "internalType": "address",
          "name": "_swapRouterV3",
          "type": "address"
        },
        {
          "internalType": "address",
          "name": "_universalRouterV4",
          "type": "address"
        },
        {
          "internalType": "address",
          "name": "_feeRecipient",
          "type": "address"
        }
      ],
      "stateMutability": "nonpayable",
      "type": "constructor"
    },
    {
      "inputs": [],
      "name": "InsufficientOutput",
      "type": "error"
    },
    {
      "inputs": [],
      "name": "InvalidAddress",
      "type": "error"
    },
    {
      "inputs": [
        {
          "internalType": "address",
          "name": "token",
          "type": "address"
        }
      ],
      "name": "SafeERC20FailedOperation",
      "type": "error"
    },
    {
      "inputs": [],
      "name": "SwapFailed",
      "type": "error"
    },
    {
      "anonymous": false,
      "inputs": [
        {
          "indexed": true,
          "internalType": "address",
          "name": "user",
          "type": "address"
        },
        {
          "indexed": true,
          "internalType": "address",
          "name": "tokenIn",
          "type": "address"
        },
        {
          "indexed": true,
          "internalType": "address",
          "name": "tokenOut",
          "type": "address"
        },
        {
          "indexed": false,
          "internalType": "uint256",
          "name": "amountIn",
          "type": "uint256"
        },
        {
          "indexed": false,
          "internalType": "uint256",
          "name": "amountOut",
          "type": "uint256"
        },
        {
          "indexed": false,
          "internalType": "uint256",
          "name": "feeAmount",
          "type": "uint256"
        }
      ],
      "name": "SwapExecuted",
      "type": "event"
    },
    {
      "inputs": [],
      "name": "BPS_DENOMINATOR",
      "outputs": [
        {
          "internalType": "uint256",
          "name": "",
          "type": "uint256"
        }
      ],
      "stateMutability": "view",
      "type": "function"
    },
    {
      "inputs": [],
      "name": "FEE_BPS",
      "outputs": [
        {
          "internalType": "uint256",
          "name": "",
          "type": "uint256"
        }
      ],
      "stateMutability": "view",
      "type": "function"
    },
    {
      "inputs": [],
      "name": "feeRecipient",
      "outputs": [
        {
          "internalType": "address",
          "name": "",
          "type": "address"
        }
      ],
      "stateMutability": "view",
      "type": "function"
    },
    {
      "inputs": [],
      "name": "permit2",
      "outputs": [
        {
          "internalType": "address",
          "name": "",
          "type": "address"
        }
      ],
      "stateMutability": "view",
      "type": "function"
    },
    {
      "inputs": [
        {
          "components": [
            {
              "internalType": "address",
              "name": "tokenIn",
              "type": "address"
            },
            {
              "internalType": "address",
              "name": "tokenOut",
              "type": "address"
            },
            {
              "internalType": "uint256",
              "name": "amountIn",
              "type": "uint256"
            },
            {
              "internalType": "uint256",
              "name": "amountOutMin",
              "type": "uint256"
            },
            {
              "internalType": "uint24",
              "name": "poolFee",
              "type": "uint24"
            },
            {
              "internalType": "uint256",
              "name": "deadline",
              "type": "uint256"
            },
            {
              "internalType": "bool",
              "name": "useV4",
              "type": "bool"
            }
          ],
          "internalType": "struct OrbIdSwapRelay.SwapParams",
          "name": "params",
          "type": "tuple"
        }
      ],
      "name": "swap",
      "outputs": [
        {
          "internalType": "uint256",
          "name": "amountOut",
          "type": "uint256"
        }
      ],
      "stateMutability": "nonpayable",
      "type": "function"
    },
    {
      "inputs": [],
      "name": "swapRouterV3",
      "outputs": [
        {
          "internalType": "address",
          "name": "",
          "type": "address"
        }
      ],
      "stateMutability": "view",
      "type": "function"
    },
    {
      "inputs": [
        {
          "components": [
            {
              "internalType": "address",
              "name": "tokenIn",
              "type": "address"
            },
            {
              "internalType": "address",
              "name": "tokenOut",
              "type": "address"
            },
            {
              "internalType": "uint256",
              "name": "amountIn",
              "type": "uint256"
            },
            {
              "internalType": "uint256",
              "name": "amountOutMin",
              "type": "uint256"
            },
            {
              "internalType": "uint24",
              "name": "poolFee",
              "type": "uint24"
            },
            {
              "internalType": "uint256",
              "name": "deadline",
              "type": "uint256"
            },
            {
              "internalType": "bool",
              "name": "useV4",
              "type": "bool"
            }
          ],
          "internalType": "struct OrbIdSwapRelay.SwapParams",
          "name": "params",
          "type": "tuple"
        },
        {
          "internalType": "bytes",
          "name": "permitData",
          "type": "bytes"
        },
        {
          "internalType": "bytes",
          "name": "signature",
          "type": "bytes"
        }
      ],
      "name": "swapWithPermit",
      "outputs": [
        {
          "internalType": "uint256",
          "name": "amountOut",
          "type": "uint256"
        }
      ],
      "stateMutability": "nonpayable",
      "type": "function"
    },
    {
      "inputs": [],
      "name": "universalRouterV4",
      "outputs": [
        {
          "internalType": "address",
          "name": "",
          "type": "address"
        }
      ],
      "stateMutability": "view",
      "type": "function"
    }
  ],
  "bytecode": "0x6101006040523480156200001257600080fd5b50604051620010f5380380620010f58339810160408190526200003591620000b2565b6001600160a01b03841615806200005357506001600160a01b038116155b15620000725760405163e6c4247b60e01b815260040160405180910390fd5b6001600160a01b0393841660805291831660a052821660c0521660e0526200010f565b80516001600160a01b0381168114620000ad57600080fd5b919050565b60008060008060808587031215620000c957600080fd5b620000d48562000095565b9350620000e46020860162000095565b9250620000f46040860162000095565b9150620001046060860162000095565b905092959194509250565b60805160a05160c05160e051610f7d620001786000396000818160f7015281816101ec01526103c901526000818161011e015281816105ae01526106cf015260008181610145015281816108340152610915015260008181609201526109d10152610f7d6000f3fe608060405234801561001057600080fd5b50600436106100885760003560e01c8063b631e80b1161005b578063b631e80b14610140578063bf333f2c14610167578063c0270a501461016f578063e1a452181461018257600080fd5b806312261ee71461008d57806325e81a50146100d157806346904840146100f2578063776ca80114610119575b600080fd5b6100b47f000000000000000000000000000000000000000000000000000000000000000081565b6040516001600160a01b0390911681526020015b60405180910390f35b6100e46100df366004610bb2565b61018b565b6040519081526020016100c8565b6100b47f000000000000000000000000000000000000000000000000000000000000000081565b6100b47f000000000000000000000000000000000000000000000000000000000000000081565b6100b47f000000000000000000000000000000000000000000000000000000000000000081565b6100e4603281565b6100e461017d366004610c1e565b610316565b6100e461271081565b60006101b5333060408501356101a46020870187610ca2565b6001600160a01b0316929190610504565b60006127106101c960326040860135610ce1565b6101d39190610cf8565b905060006101e5826040860135610d1a565b90506102297f0000000000000000000000000000000000000000000000000000000000000000836102196020880188610ca2565b6001600160a01b03169190610571565b61023960e0850160c08601610d2d565b1561024f5761024884826105a7565b925061025c565b610259848261082d565b92505b83606001358310156102815760405163bb2875c360e01b815260040160405180910390fd5b61029633846102196040880160208901610ca2565b6102a66040850160208601610ca2565b6001600160a01b03166102bc6020860186610ca2565b60408051818801358152602081018790529081018590526001600160a01b03919091169033907fad671c9d50262b75ba17bdf7e330ae0d7da971800b2526584a85f83d23296b159060600160405180910390a45050919050565b6000808061032686880188610d4f565b6040805160a08101909152919350915060009080606081018061034c60208e018e610ca2565b6001600160a01b031681526040808e0135602092830181905292845283820188905292830186905282518084019093523083528201529091506103928282338a8a6109ba565b60006127106103a6603260408e0135610ce1565b6103b09190610cf8565b905060006103c28260408e0135610d1a565b90506103fc7f0000000000000000000000000000000000000000000000000000000000000000838e60000160208101906102199190610ca2565b61040c60e08d0160c08e01610d2d565b156104225761041b8c826105a7565b965061042f565b61042c8c8261082d565b96505b8b606001358710156104545760405163bb2875c360e01b815260040160405180910390fd5b61046c33888e60200160208101906102199190610ca2565b61047c60408d0160208e01610ca2565b6001600160a01b031661049260208e018e610ca2565b6001600160a01b0316336001600160a01b03167fad671c9d50262b75ba17bdf7e330ae0d7da971800b2526584a85f83d23296b158f604001358b876040516104ed939291909283526020830191909152604082015260600190565b60405180910390a450505050505095945050505050565b6040516001600160a01b03848116602483015283811660448301526064820183905261056b9186918216906323b872dd906084015b604051602081830303815290604052915060e01b6020820180516001600160e01b038381831617835250505050610a47565b50505050565b6040516001600160a01b038381166024830152604482018390526105a291859182169063a9059cbb90606401610539565b505050565b60006105eb7f0000000000000000000000000000000000000000000000000000000000000000836105db6020870187610ca2565b6001600160a01b03169190610abc565b60408051808201825260018082526000602083018190528351828152808501909452919290816020015b60608152602001906001900390816106155790505090506106396020860186610ca2565b6106496040870160208801610ca2565b61065960a0880160808901610d71565b604080516001600160a01b039485166020820152939092169183019190915262ffffff1660608281019190915230608083015260a0820186905286013560c082015260e001604051602081830303815290604052816000815181106106c0576106c0610d96565b602002602001018190525060007f00000000000000000000000000000000000000000000000000000000000000006001600160a01b031683838860a0013560405160240161071093929190610dfc565b60408051601f198184030181529181526020820180516001600160e01b0316630d64d59360e21b179052516107459190610e77565b6000604051808303816000865af19150503d8060008114610782576040519150601f19603f3d011682016040523d82523d6000602084013e610787565b606091505b50509050806107a95760405163081ceff360e41b815260040160405180910390fd5b6107b96040870160208801610ca2565b6040516370a0823160e01b81523060048201526001600160a01b0391909116906370a0823190602401602060405180830381865afa1580156107ff573d6000803e3d6000fd5b505050506040513d601f19601f820116820180604052508101906108239190610e93565b9695505050505050565b60006108617f0000000000000000000000000000000000000000000000000000000000000000836105db6020870187610ca2565b60006108706020850185610ca2565b6108806040860160208701610ca2565b61089060a0870160808801610d71565b6040516001600160a01b03938416602482015292909116604483015262ffffff16606482015230608482015260a48101849052606085013560c4820152600060e48201526101040160408051601f198184030181529181526020820180516001600160e01b03166304e45aaf60e01b1790525190915060009081906001600160a01b037f00000000000000000000000000000000000000000000000000000000000000001690610941908590610e77565b6000604051808303816000865af19150503d806000811461097e576040519150601f19603f3d011682016040523d82523d6000602084013e610983565b606091505b5091509150816109a65760405163081ceff360e41b815260040160405180910390fd5b808060200190518101906108239190610e93565b60405163187945bd60e11b81526001600160a01b037f000000000000000000000000000000000000000000000000000000000000000016906330f28b7a90610a0e9088908890889088908890600401610eac565b600060405180830381600087803b158015610a2857600080fd5b505af1158015610a3c573d6000803e3d6000fd5b505050505050505050565b600080602060008451602086016000885af180610a6a576040513d6000823e3d81fd5b50506000513d91508115610a82578060011415610a8f565b6001600160a01b0384163b155b1561056b57604051635274afe760e01b81526001600160a01b038516600482015260240160405180910390fd5b604080516001600160a01b038416602482015260448082018490528251808303909101815260649091019091526020810180516001600160e01b031663095ea7b360e01b179052610b0d8482610b4c565b61056b576040516001600160a01b03848116602483015260006044830152610b4291869182169063095ea7b390606401610539565b61056b8482610a47565b6000806000806020600086516020880160008a5af192503d9150600051905082801561082357508115610b825780600114610823565b505050506001600160a01b0382163b15155b92915050565b600060e08284031215610bac57600080fd5b50919050565b600060e08284031215610bc457600080fd5b610bce8383610b9a565b9392505050565b60008083601f840112610be757600080fd5b50813567ffffffffffffffff811115610bff57600080fd5b602083019150836020828501011115610c1757600080fd5b9250929050565b60008060008060006101208688031215610c3757600080fd5b610c418787610b9a565b945060e086013567ffffffffffffffff80821115610c5e57600080fd5b610c6a89838a01610bd5565b9096509450610100880135915080821115610c8457600080fd5b50610c9188828901610bd5565b969995985093965092949392505050565b600060208284031215610cb457600080fd5b81356001600160a01b0381168114610bce57600080fd5b634e487b7160e01b600052601160045260246000fd5b8082028115828204841417610b9457610b94610ccb565b600082610d1557634e487b7160e01b600052601260045260246000fd5b500490565b81810381811115610b9457610b94610ccb565b600060208284031215610d3f57600080fd5b81358015158114610bce57600080fd5b60008060408385031215610d6257600080fd5b50508035926020909101359150565b600060208284031215610d8357600080fd5b813562ffffff81168114610bce57600080fd5b634e487b7160e01b600052603260045260246000fd5b60005b83811015610dc7578181015183820152602001610daf565b50506000910152565b60008151808452610de8816020860160208601610dac565b601f01601f19169290920160200192915050565b606081526000610e0f6060830186610dd0565b6020838203818501528186518084528284019150828160051b85010183890160005b83811015610e5f57601f19878403018552610e4d838351610dd0565b94860194925090850190600101610e31565b50508095505050505050826040830152949350505050565b60008251610e89818460208701610dac565b9190910192915050565b600060208284031215610ea557600080fd5b5051919050565b6000610100610ecf83895180516001600160a01b03168252602090810151910152565b6020880151604084015260408801516060840152610f03608084018880516001600160a01b03168252602090810151910152565b6001600160a01b03861660c084015260e0830181905282018390526101208385828501376000838501820152601f909301601f19169091019091019594505050505056fea2646970667358221220dc6bf314bb5183b69d35f7ec69883001151850cb562c7784a7288bbef752a9df64736f6c63430008140033",
  "linkReferences": {},
  "deployedLinkReferences": {}
}