{"src/OrbIdSwapRelay.sol":{"OrbIdSwapRelay":{"abi":[{"inputs":[{"internalType":"address","name":"_permit2","type":"address"},{"internalType":"address","name":"_swapRouterV3","type":"address"},{"internalType":"address","name":"_universalRouterV4","type":"address"},{"internalType":"address","name":"_feeRecipient","type":"address"}],"stateMutability":"nonpayable","type":"constructor"},{"inputs":[],"name":"InsufficientOutput","type":"error"},{"inputs":[],"name":"InvalidAddress","type":"error"},{"inputs":[{"internalType":"address","name":"token","type":"address"}],"name":"SafeERC20FailedOperation","type":"error"},{"inputs":[],"name":"SwapFailed","type":"error"},{"anonymous":false,"inputs":[{"indexed":true,"internalType":"address","name":"user","type":"address"},{"indexed":true,"internalType":"address","name":"tokenIn","type":"address"},{"indexed":true,"internalType":"address","name":"tokenOut","type":"address"},{"indexed":false,"internalType":"uint256","name":"amountIn","type":"uint256"},{"indexed":false,"internalType":"uint256","name":"amountOut","type":"uint256"},{"indexed":false,"internalType":"uint256","name":"feeAmount","type":"uint256"}],"name":"SwapExecuted","type":"event"},{"inputs":[],"name":"BPS_DENOMINATOR","outputs":[{"internalType":"uint256","name":"","type":"uint256"}],"stateMutability":"view","type":"function"},{"inputs":[],"name":"FEE_BPS","outputs":[{"internalType":"uint256","name":"","type":"uint256"}],"stateMutability":"view","type":"function"},{"inputs":[],"name":"feeRecipient","outputs":[{"internalType":"address","name":"","type":"address"}],"stateMutability":"view","type":"function"},{"inputs":[],"name":"permit2","outputs":[{"internalType":"address","name":"","type":"address"}],"stateMutability":"view","type":"function"},{"inputs":[{"components":[{"internalType":"address","name":"tokenIn","type":"address"},{"internalType":"address","name":"tokenOut","type":"address"},{"internalType":"uint256","name":"amountIn","type":"uint256"},{"internalType":"uint256","name":"amountOutMin","type":"uint256"},{"internalType":"uint24","name":"poolFee","type":"uint24"},{"internalType":"uint256","name":"deadline","type":"uint256"},{"internalType":"bool","name":"useV4","type":"bool"}],"internalType":"struct OrbIdSwapRelay.SwapParams","name":"params","type":"tuple"}],"name":"swap","outputs":[{"internalType":"uint256","name":"amountOut","type":"uint256"}],"stateMutability":"nonpayable","type":"function"},{"inputs":[],"name":"swapRouterV3","outputs":[{"internalType":"address","name":"","type":"address"}],"stateMutability":"view","type":"function"},{"inputs":[{"components":[{"internalType":"address","name":"tokenIn","type":"address"},{"internalType":"address","name":"tokenOut","type":"address"},{"internalType":"uint256","name":"amountIn","type":"uint256"},{"internalType":"uint256","name":"amountOutMin","type":"uint256"},{"internalType":"uint24","name":"poolFee","type":"uint24"},{"internalType":"uint256","name":"deadline","type":"uint256"},{"internalType":"bool","name":"useV4","type":"bool"}],"internalType":"struct OrbIdSwapRelay.SwapParams","name":"params","type":"tuple"},{"internalType":"bytes","name":"permitData","type":"bytes"},{"internalType":"bytes","name":"signature","type":"bytes"}],"name":"swapWithPermit","outputs":[{"internalType":"uint256","name":"amountOut","type":"uint256"}],"stateMutability":"nonpayable","type":"function"},{"inputs":[],"name":"universalRouterV4","outputs":[{"internalType":"address","name":"","type":"address"}],"stateMutability":"view","type":"function"}],"evm":{"bytecode":{"linkReferences":{},"object":"6101006040523480156200001257600080fd5b50604051620010f5380380620010f58339810160408190526200003591620000b2565b6001600160a01b03841615806200005357506001600160a01b038116155b15620000725760405163e6c4247b60e01b815260040160405180910390fd5b6001600160a01b0393841660805291831660a052821660c0521660e0526200010f565b80516001600160a01b0381168114620000ad57600080fd5b919050565b60008060008060808587031215620000c957600080fd5b620000d48562000095565b9350620000e46020860162000095565b9250620000f46040860162000095565b9150620001046060860162000095565b905092959194509250565b60805160a05160c05160e051610f7d620001786000396000818160f7015281816101ec01526103c901526000818161011e015281816105ae01526106cf015260008181610145015281816108340152610915015260008181609201526109d10152610f7d6000f3fe608060405234801561001057600080fd5b50600436106100885760003560e01c8063b631e80b1161005b578063b631e80b14610140578063bf333f2c14610167578063c0270a501461016f578063e1a452181461018257600080fd5b806312261ee71461008d57806325e81a50146100d157806346904840146100f2578063776ca80114610119575b600080fd5b6100b47f000000000000000000000000000000000000000000000000000000000000000081565b6040516001600160a01b0390911681526020015b60405180910390f35b6100e46100df366004610bb2565b61018b565b6040519081526020016100c8565b6100b47f000000000000000000000000000000000000000000000000000000000000000081565b6100b47f000000000000000000000000000000000000000000000000000000000000000081565b6100b47f000000000000000000000000000000000000000000000000000000000000000081565b6100e4603281565b6100e461017d366004610c1e565b610316565b6100e461271081565b60006101b5333060408501356101a46020870187610ca2565b6001600160a01b0316929190610504565b60006127106101c960326040860135610ce1565b6101d39190610cf8565b905060006101e5826040860135610d1a565b90506102297f0000000000000000000000000000000000000000000000000000000000000000836102196020880188610ca2565b6001600160a01b03169190610571565b61023960e0850160c08601610d2d565b1561024f5761024884826105a7565b925061025c565b610259848261082d565b92505b83606001358310156102815760405163bb2875c360e01b815260040160405180910390fd5b61029633846102196040880160208901610ca2565b6102a66040850160208601610ca2565b6001600160a01b03166102bc6020860186610ca2565b60408051818801358152602081018790529081018590526001600160a01b03919091169033907fad671c9d50262b75ba17bdf7e330ae0d7da971800b2526584a85f83d23296b159060600160405180910390a45050919050565b6000808061032686880188610d4f565b6040805160a08101909152919350915060009080606081018061034c60208e018e610ca2565b6001600160a01b031681526040808e0135602092830181905292845283820188905292830186905282518084019093523083528201529091506103928282338a8a6109ba565b60006127106103a6603260408e0135610ce1565b6103b09190610cf8565b905060006103c28260408e0135610d1a565b90506103fc7f0000000000000000000000000000000000000000000000000000000000000000838e60000160208101906102199190610ca2565b61040c60e08d0160c08e01610d2d565b156104225761041b8c826105a7565b965061042f565b61042c8c8261082d565b96505b8b606001358710156104545760405163bb2875c360e01b815260040160405180910390fd5b61046c33888e60200160208101906102199190610ca2565b61047c60408d0160208e01610ca2565b6001600160a01b031661049260208e018e610ca2565b6001600160a01b0316336001600160a01b03167fad671c9d50262b75ba17bdf7e330ae0d7da971800b2526584a85f83d23296b158f604001358b876040516104ed939291909283526020830191909152604082015260600190565b60405180910390a450505050505095945050505050565b6040516001600160a01b03848116602483015283811660448301526064820183905261056b9186918216906323b872dd906084015b604051602081830303815290604052915060e01b6020820180516001600160e01b038381831617835250505050610a47565b50505050565b6040516001600160a01b038381166024830152604482018390526105a291859182169063a9059cbb90606401610539565b505050565b60006105eb7f0000000000000000000000000000000000000000000000000000000000000000836105db6020870187610ca2565b6001600160a01b03169190610abc565b60408051808201825260018082526000602083018190528351828152808501909452919290816020015b60608152602001906001900390816106155790505090506106396020860186610ca2565b6106496040870160208801610ca2565b61065960a0880160808901610d71565b604080516001600160a01b039485166020820152939092169183019190915262ffffff1660608281019190915230608083015260a0820186905286013560c082015260e001604051602081830303815290604052816000815181106106c0576106c0610d96565b602002602001018190525060007f00000000000000000000000000000000000000000000000000000000000000006001600160a01b031683838860a0013560405160240161071093929190610dfc565b60408051601f198184030181529181526020820180516001600160e01b0316630d64d59360e21b179052516107459190610e77565b6000604051808303816000865af19150503d8060008114610782576040519150601f19603f3d011682016040523d82523d6000602084013e610787565b606091505b50509050806107a95760405163081ceff360e41b815260040160405180910390fd5b6107b96040870160208801610ca2565b6040516370a0823160e01b81523060048201526001600160a01b0391909116906370a0823190602401602060405180830381865afa1580156107ff573d6000803e3d6000fd5b505050506040513d601f19601f820116820180604052508101906108239190610e93565b9695505050505050565b60006108617f0000000000000000000000000000000000000000000000000000000000000000836105db6020870187610ca2565b60006108706020850185610ca2565b6108806040860160208701610ca2565b61089060a0870160808801610d71565b6040516001600160a01b03938416602482015292909116604483015262ffffff16606482015230608482015260a48101849052606085013560c4820152600060e48201526101040160408051601f198184030181529181526020820180516001600160e01b03166304e45aaf60e01b1790525190915060009081906001600160a01b037f00000000000000000000000000000000000000000000000000000000000000001690610941908590610e77565b6000604051808303816000865af19150503d806000811461097e576040519150601f19603f3d011682016040523d82523d6000602084013e610983565b606091505b5091509150816109a65760405163081ceff360e41b815260040160405180910390fd5b808060200190518101906108239190610e93565b60405163187945bd60e11b81526001600160a01b037f000000000000000000000000000000000000000000000000000000000000000016906330f28b7a90610a0e9088908890889088908890600401610eac565b600060405180830381600087803b158015610a2857600080fd5b505af1158015610a3c573d6000803e3d6000fd5b505050505050505050565b600080602060008451602086016000885af180610a6a576040513d6000823e3d81fd5b50506000513d91508115610a82578060011415610a8f565b6001600160a01b0384163b155b1561056b57604051635274afe760e01b81526001600160a01b038516600482015260240160405180910390fd5b604080516001600160a01b038416602482015260448082018490528251808303909101815260649091019091526020810180516001600160e01b031663095ea7b360e01b179052610b0d8482610b4c565b61056b576040516001600160a01b03848116602483015260006044830152610b4291869182169063095ea7b390606401610539565b61056b8482610a47565b6000806000806020600086516020880160008a5af192503d9150600051905082801561082357508115610b825780600114610823565b505050506001600160a01b0382163b15155b92915050565b600060e08284031215610bac57600080fd5b50919050565b600060e08284031215610bc457600080fd5b610bce8383610b9a565b9392505050565b60008083601f840112610be757600080fd5b50813567ffffffffffffffff811115610bff57600080fd5b602083019150836020828501011115610c1757600080fd5b9250929050565b60008060008060006101208688031215610c3757600080fd5b610c418787610b9a565b945060e086013567ffffffffffffffff80821115610c5e57600080fd5b610c6a89838a01610bd5565b9096509450610100880135915080821115610c8457600080fd5b50610c9188828901610bd5565b969995985093965092949392505050565b600060208284031215610cb457600080fd5b81356001600160a01b0381168114610bce57600080fd5b634e487b7160e01b600052601160045260246000fd5b8082028115828204841417610b9457610b94610ccb565b600082610d1557634e487b7160e01b600052601260045260246000fd5b500490565b81810381811115610b9457610b94610ccb565b600060208284031215610d3f57600080fd5b81358015158114610bce57600080fd5b60008060408385031215610d6257600080fd5b50508035926020909101359150565b600060208284031215610d8357600080fd5b813562ffffff81168114610bce57600080fd5b634e487b7160e01b600052603260045260246000fd5b60005b83811015610dc7578181015183820152602001610daf565b50506000910152565b60008151808452610de8816020860160208601610dac565b601f01601f19169290920160200192915050565b606081526000610e0f6060830186610dd0565b6020838203818501528186518084528284019150828160051b85010183890160005b83811015610e5f57601f19878403018552610e4d838351610dd0565b94860194925090850190600101610e31565b50508095505050505050826040830152949350505050565b60008251610e89818460208701610dac565b9190910192915050565b600060208284031215610ea557600080fd5b5051919050565b6000610100610ecf83895180516001600160a01b03168252602090810151910152565b6020880151604084015260408801516060840152610f03608084018880516001600160a01b03168252602090810151910152565b6001600160a01b03861660c084015260e0830181905282018390526101208385828501376000838501820152601f909301601f19169091019091019594505050505056fea2646970667358221220dc6bf314bb5183b69d35f7ec69883001151850cb562c7784a7288bbef752a9df64736f6c63430008140033","opcodes":"PUSH2 0x100 PUSH1 0x40 MSTORE CALLVALUE DUP1 ISZERO PUSH3 0x12 JUMPI PUSH1 0x0 DUP1 REVERT JUMPDEST POP PUSH1 0x40 MLOAD PUSH3 0x10F5 CODESIZE SUB DUP1 PUSH3 0x10F5 DUP4 CODECOPY DUP2 ADD PUSH1 0x40 DUP2 SWAP1 MSTORE PUSH3 0x35 SWAP2 PUSH3 0xB2 JUMP JUMPDEST PUSH1 0x1 PUSH1 0x1 PUSH1 0xA0 SHL SUB DUP5 AND ISZERO DUP1 PUSH3 0x53 JUMPI POP PUSH1 0x1 PUSH1 0x1 PUSH1 0xA0 SHL SUB DUP2 AND ISZERO JUMPDEST ISZERO PUSH3 0x72 JUMPI PUSH1 0x40 MLOAD PUSH4 0xE6C4247B PUSH1 0xE0 SHL DUP2 MSTORE PUSH1 0x4 ADD PUSH1 0x40 MLOAD DUP1 SWAP2 SUB SWAP1 REVERT JUMPDEST PUSH1 0x1 PUSH1 0x1 PUSH1 0xA0 SHL SUB SWAP4 DUP5 AND PUSH1 0x80 MSTORE SWAP2 DUP4 AND PUSH1 0xA0 MSTORE DUP3 AND PUSH1 0xC0 MSTORE AND PUSH1 0xE0 MSTORE PUSH3 0x10F JUMP JUMPDEST DUP1 MLOAD PUSH1 0x1 PUSH1 0x1 PUSH1 0xA0 SHL SUB DUP2 AND DUP2 EQ PUSH3 0xAD JUMPI PUSH1 0x0 DUP1 REVERT JUMPDEST SWAP2 SWAP1 POP JUMP JUMPDEST PUSH1 0x0 DUP1 PUSH1 0x0 DUP1 PUSH1 0x80 DUP6 DUP8 SUB SLT ISZERO PUSH3 0xC9 JUMPI PUSH1 0x0 DUP1 REVERT JUMPDEST PUSH3 0xD4 DUP6 PUSH3 0x95 JUMP JUMPDEST SWAP4 POP PUSH3 0xE4 PUSH1 0x20 DUP7 ADD PUSH3 0x95 JUMP JUMPDEST SWAP3 POP PUSH3 0xF4 PUSH1 0x40 DUP7 ADD PUSH3 0x95 JUMP JUMPDEST SWAP2 POP PUSH3 0x104 PUSH1 0x60 DUP7 ADD PUSH3 0x95 JUMP JUMPDEST SWAP1 POP SWAP3 SWAP6 SWAP2 SWAP5 POP SWAP3 POP JUMP JUMPDEST PUSH1 0x80 MLOAD PUSH1 0xA0 MLOAD PUSH1 0xC0 MLOAD PUSH1 0xE0 MLOAD PUSH2 0xF7D PUSH3 0x178 PUSH1 0x0 CODECOPY PUSH1 0x0 DUP2 DUP2 PUSH1 0xF7 ADD MSTORE DUP2 DUP2 PUSH2 0x1EC ADD MSTORE PUSH2 0x3C9 ADD MSTORE PUSH1 0x0 DUP2 DUP2 PUSH2 0x11E ADD MSTORE DUP2 DUP2 PUSH2 0x5AE ADD MSTORE PUSH2 0x6CF ADD MSTORE PUSH1 0x0 DUP2 DUP2 PUSH2 0x145 ADD MSTORE DUP2 DUP2 PUSH2 0x834 ADD MSTORE PUSH2 0x915 ADD MSTORE PUSH1 0x0 DUP2 DUP2 PUSH1 0x92 ADD MSTORE PUSH2 0x9D1 ADD MSTORE PUSH2 0xF7D PUSH1 0x0 RETURN INVALID PUSH1 0x80 PUSH1 0x40 MSTORE CALLVALUE DUP1 ISZERO PUSH2 0x10 JUMPI PUSH1 0x0 DUP1 REVERT JUMPDEST POP PUSH1 0x4 CALLDATASIZE LT PUSH2 0x88 JUMPI PUSH1 0x0 CALLDATALOAD PUSH1 0xE0 SHR DUP1 PUSH4 0xB631E80B GT PUSH2 0x5B JUMPI DUP1 PUSH4 0xB631E80B EQ PUSH2 0x140 JUMPI DUP1 PUSH4 0xBF333F2C EQ PUSH2 0x167 JUMPI DUP1 PUSH4 0xC0270A50 EQ PUSH2 0x16F JUMPI DUP1 PUSH4 0xE1A45218 EQ PUSH2 0x182 JUMPI PUSH1 0x0 DUP1 REVERT JUMPDEST DUP1 PUSH4 0x12261EE7 EQ PUSH2 0x8D JUMPI DUP1 PUSH4 0x25E81A50 EQ PUSH2 0xD1 JUMPI DUP1 PUSH4 0x46904840 EQ PUSH2 0xF2 JUMPI DUP1 PUSH4 0x776CA801 EQ PUSH2 0x119 JUMPI JUMPDEST PUSH1 0x0 DUP1 REVERT JUMPDEST PUSH2 0xB4 PUSH32 0x0 DUP2 JUMP JUMPDEST PUSH1 0x40 MLOAD PUSH1 0x1 PUSH1 0x1 PUSH1 0xA0 SHL SUB SWAP1 SWAP2 AND DUP2 MSTORE PUSH1 0x20 ADD JUMPDEST PUSH1 0x40 MLOAD DUP1 SWAP2 SUB SWAP1 RETURN JUMPDEST PUSH2 0xE4 PUSH2 0xDF CALLDATASIZE PUSH1 0x4 PUSH2 0xBB2 JUMP JUMPDEST PUSH2 0x18B JUMP JUMPDEST PUSH1 0x40 MLOAD SWAP1 DUP2 MSTORE PUSH1 0x20 ADD PUSH2 0xC8 JUMP JUMPDEST PUSH2 0xB4 PUSH32 0x0 DUP2 JUMP JUMPDEST PUSH2 0xB4 PUSH32 0x0 DUP2 JUMP JUMPDEST PUSH2 0xB4 PUSH32 0x0 DUP2 JUMP JUMPDEST PUSH2 0xE4 PUSH1 0x32 DUP2 JUMP JUMPDEST PUSH2 0xE4 PUSH2 0x17D CALLDATASIZE PUSH1 0x4 PUSH2 0xC1E JUMP JUMPDEST PUSH2 0x316 JUMP JUMPDEST PUSH2 0xE4 PUSH2 0x2710 DUP2 JUMP JUMPDEST PUSH1 0x0 PUSH2 0x1B5 CALLER ADDRESS PUSH1 0x40 DUP6 ADD CALLDATALOAD PUSH2 0x1A4 PUSH1 0x20 DUP8 ADD DUP8 PUSH2 0xCA2 JUMP JUMPDEST PUSH1 0x1 PUSH1 0x1 PUSH1 0xA0 SHL SUB AND SWAP3 SWAP2 SWAP1 PUSH2 0x504 JUMP JUMPDEST PUSH1 0x0 PUSH2 0x2710 PUSH2 0x1C9 PUSH1 0x32 PUSH1 0x40 DUP7 ADD CALLDATALOAD PUSH2 0xCE1 JUMP JUMPDEST PUSH2 0x1D3 SWAP2 SWAP1 PUSH2 0xCF8 JUMP JUMPDEST SWAP1 POP PUSH1 0x0 PUSH2 0x1E5 DUP3 PUSH1 0x40 DUP7 ADD CALLDATALOAD PUSH2 0xD1A JUMP JUMPDEST SWAP1 POP PUSH2 0x229 PUSH32 0x0 DUP4 PUSH2 0x219 PUSH1 0x20 DUP9 ADD DUP9 PUSH2 0xCA2 JUMP JUMPDEST PUSH1 0x1 PUSH1 0x1 PUSH1 0xA0 SHL SUB AND SWAP2 SWAP1 PUSH2 0x571 JUMP JUMPDEST PUSH2 0x239 PUSH1 0xE0 DUP6 ADD PUSH1 0xC0 DUP7 ADD PUSH2 0xD2D JUMP JUMPDEST ISZERO PUSH2 0x24F JUMPI PUSH2 0x248 DUP5 DUP3 PUSH2 0x5A7 JUMP JUMPDEST SWAP3 POP PUSH2 0x25C JUMP JUMPDEST PUSH2 0x259 DUP5 DUP3 PUSH2 0x82D JUMP JUMPDEST SWAP3 POP JUMPDEST DUP4 PUSH1 0x60 ADD CALLDATALOAD DUP4 LT ISZERO PUSH2 0x281 JUMPI PUSH1 0x40 MLOAD PUSH4 0xBB2875C3 PUSH1 0xE0 SHL DUP2 MSTORE PUSH1 0x4 ADD PUSH1 0x40 MLOAD DUP1 SWAP2 SUB SWAP1 REVERT JUMPDEST PUSH2 0x296 CALLER DUP5 PUSH2 0x219 PUSH1 0x40 DUP9 ADD PUSH1 0x20 DUP10 ADD PUSH2 0xCA2 JUMP JUMPDEST PUSH2 0x2A6 PUSH1 0x40 DUP6 ADD PUSH1 0x20 DUP7 ADD PUSH2 0xCA2 JUMP JUMPDEST PUSH1 0x1 PUSH1 0x1 PUSH1 0xA0 SHL SUB AND PUSH2 0x2BC PUSH1 0x20 DUP7 ADD DUP7 PUSH2 0xCA2 JUMP JUMPDEST PUSH1 0x40 DUP1 MLOAD DUP2 DUP9 ADD CALLDATALOAD DUP2 MSTORE PUSH1 0x20 DUP2 ADD DUP8 SWAP1 MSTORE SWAP1 DUP2 ADD DUP6 SWAP1 MSTORE PUSH1 0x1 PUSH1 0x1 PUSH1 0xA0 SHL SUB SWAP2 SWAP1 SWAP2 AND SWAP1 CALLER SWAP1 PUSH32 0xAD671C9D50262B75BA17BDF7E330AE0D7DA971800B2526584A85F83D23296B15 SWAP1 PUSH1 0x60 ADD PUSH1 0x40 MLOAD DUP1 SWAP2 SUB SWAP1 LOG4 POP POP SWAP2 SWAP1 POP JUMP JUMPDEST PUSH1 0x0 DUP1 DUP1 PUSH2 0x326 DUP7 DUP9 ADD DUP9 PUSH2 0xD4F JUMP JUMPDEST PUSH1 0x40 DUP1 MLOAD PUSH1 0xA0 DUP2 ADD SWAP1 SWAP2 MSTORE SWAP2 SWAP4 POP SWAP2 POP PUSH1 0x0 SWAP1 DUP1 PUSH1 0x60 DUP2 ADD DUP1 PUSH2 0x34C PUSH1 0x20 DUP15 ADD DUP15 PUSH2 0xCA2 JUMP JUMPDEST PUSH1 0x1 PUSH1 0x1 PUSH1 0xA0 SHL SUB AND DUP2 MSTORE PUSH1 0x40 DUP1 DUP15 ADD CALLDATALOAD PUSH1 0x20 SWAP3 DUP4 ADD DUP2 SWAP1 MSTORE SWAP3 DUP5 MSTORE DUP4 DUP3 ADD DUP9 SWAP1 MSTORE SWAP3 DUP4 ADD DUP7 SWAP1 MSTORE DUP3 MLOAD DUP1 DUP5 ADD SWAP1 SWAP4 MSTORE ADDRESS DUP4 MSTORE DUP3 ADD MSTORE SWAP1 SWAP2 POP PUSH2 0x392 DUP3 DUP3 CALLER DUP11 DUP11 PUSH2 0x9BA JUMP JUMPDEST PUSH1 0x0 PUSH2 0x2710 PUSH2 0x3A6 PUSH1 0x32 PUSH1 0x40 DUP15 ADD CALLDATALOAD PUSH2 0xCE1 JUMP JUMPDEST PUSH2 0x3B0 SWAP2 SWAP1 PUSH2 0xCF8 JUMP JUMPDEST SWAP1 POP PUSH1 0x0 PUSH2 0x3C2 DUP3 PUSH1 0x40 DUP15 ADD CALLDATALOAD PUSH2 0xD1A JUMP JUMPDEST SWAP1 POP PUSH2 0x3FC PUSH32 0x0 DUP4 DUP15 PUSH1 0x0 ADD PUSH1 0x20 DUP2 ADD SWAP1 PUSH2 0x219 SWAP2 SWAP1 PUSH2 0xCA2 JUMP JUMPDEST PUSH2 0x40C PUSH1 0xE0 DUP14 ADD PUSH1 0xC0 DUP15 ADD PUSH2 0xD2D JUMP JUMPDEST ISZERO PUSH2 0x422 JUMPI PUSH2 0x41B DUP13 DUP3 PUSH2 0x5A7 JUMP JUMPDEST SWAP7 POP PUSH2 0x42F JUMP JUMPDEST PUSH2 0x42C DUP13 DUP3 PUSH2 0x82D JUMP JUMPDEST SWAP7 POP JUMPDEST DUP12 PUSH1 0x60 ADD CALLDATALOAD DUP8 LT ISZERO PUSH2 0x454 JUMPI PUSH1 0x40 MLOAD PUSH4 0xBB2875C3 PUSH1 0xE0 SHL DUP2 MSTORE PUSH1 0x4 ADD PUSH1 0x40 MLOAD DUP1 SWAP2 SUB SWAP1 REVERT JUMPDEST PUSH2 0x46C CALLER DUP9 DUP15 PUSH1 0x20 ADD PUSH1 0x20 DUP2 ADD SWAP1 PUSH2 0x219 SWAP2 SWAP1 PUSH2 0xCA2 JUMP JUMPDEST PUSH2 0x47C PUSH1 0x40 DUP14 ADD PUSH1 0x20 DUP15 ADD PUSH2 0xCA2 JUMP JUMPDEST PUSH1 0x1 PUSH1 0x1 PUSH1 0xA0 SHL SUB AND PUSH2 0x492 PUSH1 0x20 DUP15 ADD DUP15 PUSH2 0xCA2 JUMP JUMPDEST PUSH1 0x1 PUSH1 0x1 PUSH1 0xA0 SHL SUB AND CALLER PUSH1 0x1 PUSH1 0x1 PUSH1 0xA0 SHL SUB AND PUSH32 0xAD671C9D50262B75BA17BDF7E330AE0D7DA971800B2526584A85F83D23296B15 DUP16 PUSH1 0x40 ADD CALLDATALOAD DUP12 DUP8 PUSH1 0x40 MLOAD PUSH2 0x4ED SWAP4 SWAP3 SWAP2 SWAP1 SWAP3 DUP4 MSTORE PUSH1 0x20 DUP4 ADD SWAP2 SWAP1 SWAP2 MSTORE PUSH1 0x40 DUP3 ADD MSTORE PUSH1 0x60 ADD SWAP1 JUMP JUMPDEST PUSH1 0x40 MLOAD DUP1 SWAP2 SUB SWAP1 LOG4 POP POP POP POP POP POP SWAP6 SWAP5 POP POP POP POP POP JUMP JUMPDEST PUSH1 0x40 MLOAD PUSH1 0x1 PUSH1 0x1 PUSH1 0xA0 SHL SUB DUP5 DUP2 AND PUSH1 0x24 DUP4 ADD MSTORE DUP4 DUP2 AND PUSH1 0x44 DUP4 ADD MSTORE PUSH1 0x64 DUP3 ADD DUP4 SWAP1 MSTORE PUSH2 0x56B SWAP2 DUP7 SWAP2 DUP3 AND SWAP1 PUSH4 0x23B872DD SWAP1 PUSH1 0x84 ADD JUMPDEST PUSH1 0x40 MLOAD PUSH1 0x20 DUP2 DUP4 SUB SUB DUP2 MSTORE SWAP1 PUSH1 0x40 MSTORE SWAP2 POP PUSH1 0xE0 SHL PUSH1 0x20 DUP3 ADD DUP1 MLOAD PUSH1 0x1 PUSH1 0x1 PUSH1 0xE0 SHL SUB DUP4 DUP2 DUP4 AND OR DUP4 MSTORE POP POP POP POP PUSH2 0xA47 JUMP JUMPDEST POP POP POP POP JUMP JUMPDEST PUSH1 0x40 MLOAD PUSH1 0x1 PUSH1 0x1 PUSH1 0xA0 SHL SUB DUP4 DUP2 AND PUSH1 0x24 DUP4 ADD MSTORE PUSH1 0x44 DUP3 ADD DUP4 SWAP1 MSTORE PUSH2 0x5A2 SWAP2 DUP6 SWAP2 DUP3 AND SWAP1 PUSH4 0xA9059CBB SWAP1 PUSH1 0x64 ADD PUSH2 0x539 JUMP JUMPDEST POP POP POP JUMP JUMPDEST PUSH1 0x0 PUSH2 0x5EB PUSH32 0x0 DUP4 PUSH2 0x5DB PUSH1 0x20 DUP8 ADD DUP8 PUSH2 0xCA2 JUMP JUMPDEST PUSH1 0x1 PUSH1 0x1 PUSH1 0xA0 SHL SUB AND SWAP2 SWAP1 PUSH2 0xABC JUMP JUMPDEST PUSH1 0x40 DUP1 MLOAD DUP1 DUP3 ADD DUP3 MSTORE PUSH1 0x1 DUP1 DUP3 MSTORE PUSH1 0x0 PUSH1 0x20 DUP4 ADD DUP2 SWAP1 MSTORE DUP4 MLOAD DUP3 DUP2 MSTORE DUP1 DUP6 ADD SWAP1 SWAP5 MSTORE SWAP2 SWAP3 SWAP1 DUP2 PUSH1 0x20 ADD JUMPDEST PUSH1 0x60 DUP2 MSTORE PUSH1 0x20 ADD SWAP1 PUSH1 0x1 SWAP1 SUB SWAP1 DUP2 PUSH2 0x615 JUMPI SWAP1 POP POP SWAP1 POP PUSH2 0x639 PUSH1 0x20 DUP7 ADD DUP7 PUSH2 0xCA2 JUMP JUMPDEST PUSH2 0x649 PUSH1 0x40 DUP8 ADD PUSH1 0x20 DUP9 ADD PUSH2 0xCA2 JUMP JUMPDEST PUSH2 0x659 PUSH1 0xA0 DUP9 ADD PUSH1 0x80 DUP10 ADD PUSH2 0xD71 JUMP JUMPDEST PUSH1 0x40 DUP1 MLOAD PUSH1 0x1 PUSH1 0x1 PUSH1 0xA0 SHL SUB SWAP5 DUP6 AND PUSH1 0x20 DUP3 ADD MSTORE SWAP4 SWAP1 SWAP3 AND SWAP2 DUP4 ADD SWAP2 SWAP1 SWAP2 MSTORE PUSH3 0xFFFFFF AND PUSH1 0x60 DUP3 DUP2 ADD SWAP2 SWAP1 SWAP2 MSTORE ADDRESS PUSH1 0x80 DUP4 ADD MSTORE PUSH1 0xA0 DUP3 ADD DUP7 SWAP1 MSTORE DUP7 ADD CALLDATALOAD PUSH1 0xC0 DUP3 ADD MSTORE PUSH1 0xE0 ADD PUSH1 0x40 MLOAD PUSH1 0x20 DUP2 DUP4 SUB SUB DUP2 MSTORE SWAP1 PUSH1 0x40 MSTORE DUP2 PUSH1 0x0 DUP2 MLOAD DUP2 LT PUSH2 0x6C0 JUMPI PUSH2 0x6C0 PUSH2 0xD96 JUMP JUMPDEST PUSH1 0x20 MUL PUSH1 0x20 ADD ADD DUP2 SWAP1 MSTORE POP PUSH1 0x0 PUSH32 0x0 PUSH1 0x1 PUSH1 0x1 PUSH1 0xA0 SHL SUB AND DUP4 DUP4 DUP9 PUSH1 0xA0 ADD CALLDATALOAD PUSH1 0x40 MLOAD PUSH1 0x24 ADD PUSH2 0x710 SWAP4 SWAP3 SWAP2 SWAP1 PUSH2 0xDFC JUMP JUMPDEST PUSH1 0x40 DUP1 MLOAD PUSH1 0x1F NOT DUP2 DUP5 SUB ADD DUP2 MSTORE SWAP2 DUP2 MSTORE PUSH1 0x20 DUP3 ADD DUP1 MLOAD PUSH1 0x1 PUSH1 0x1 PUSH1 0xE0 SHL SUB AND PUSH4 0xD64D593 PUSH1 0xE2 SHL OR SWAP1 MSTORE MLOAD PUSH2 0x745 SWAP2 SWAP1 PUSH2 0xE77 JUMP JUMPDEST PUSH1 0x0 PUSH1 0x40 MLOAD DUP1 DUP4 SUB DUP2 PUSH1 0x0 DUP7 GAS CALL SWAP2 POP POP RETURNDATASIZE DUP1 PUSH1 0x0 DUP2 EQ PUSH2 0x782 JUMPI PUSH1 0x40 MLOAD SWAP2 POP PUSH1 0x1F NOT PUSH1 0x3F RETURNDATASIZE ADD AND DUP3 ADD PUSH1 0x40 MSTORE RETURNDATASIZE DUP3 MSTORE RETURNDATASIZE PUSH1 0x0 PUSH1 0x20 DUP5 ADD RETURNDATACOPY PUSH2 0x787 JUMP JUMPDEST PUSH1 0x60 SWAP2 POP JUMPDEST POP POP SWAP1 POP DUP1 PUSH2 0x7A9 JUMPI PUSH1 0x40 MLOAD PUSH4 0x81CEFF3 PUSH1 0xE4 SHL DUP2 MSTORE PUSH1 0x4 ADD PUSH1 0x40 MLOAD DUP1 SWAP2 SUB SWAP1 REVERT JUMPDEST PUSH2 0x7B9 PUSH1 0x40 DUP8 ADD PUSH1 0x20 DUP9 ADD PUSH2 0xCA2 JUMP JUMPDEST PUSH1 0x40 MLOAD PUSH4 0x70A08231 PUSH1 0xE0 SHL DUP2 MSTORE ADDRESS PUSH1 0x4 DUP3 ADD MSTORE PUSH1 0x1 PUSH1 0x1 PUSH1 0xA0 SHL SUB SWAP2 SWAP1 SWAP2 AND SWAP1 PUSH4 0x70A08231 SWAP1 PUSH1 0x24 ADD PUSH1 0x20 PUSH1 0x40 MLOAD DUP1 DUP4 SUB DUP2 DUP7 GAS STATICCALL ISZERO DUP1 ISZERO PUSH2 0x7FF JUMPI RETURNDATASIZE PUSH1 0x0 DUP1 RETURNDATACOPY RETURNDATASIZE PUSH1 0x0 REVERT JUMPDEST POP POP POP POP PUSH1 0x40 MLOAD RETURNDATASIZE PUSH1 0x1F NOT PUSH1 0x1F DUP3 ADD AND DUP3 ADD DUP1 PUSH1 0x40 MSTORE POP DUP2 ADD SWAP1 PUSH2 0x823 SWAP2 SWAP1 PUSH2 0xE93 JUMP JUMPDEST SWAP7 SWAP6 POP POP POP POP POP POP JUMP JUMPDEST PUSH1 0x0 PUSH2 0x861 PUSH32 0x0 DUP4 PUSH2 0x5DB PUSH1 0x20 DUP8 ADD DUP8 PUSH2 0xCA2 JUMP JUMPDEST PUSH1 0x0 PUSH2 0x870 PUSH1 0x20 DUP6 ADD DUP6 PUSH2 0xCA2 JUMP JUMPDEST PUSH2 0x880 PUSH1 0x40 DUP7 ADD PUSH1 0x20 DUP8 ADD PUSH2 0xCA2 JUMP JUMPDEST PUSH2 0x890 PUSH1 0xA0 DUP8 ADD PUSH1 0x80 DUP9 ADD PUSH2 0xD71 JUMP JUMPDEST PUSH1 0x40 MLOAD PUSH1 0x1 PUSH1 0x1 PUSH1 0xA0 SHL SUB SWAP4 DUP5 AND PUSH1 0x24 DUP3 ADD MSTORE SWAP3 SWAP1 SWAP2 AND PUSH1 0x44 DUP4 ADD MSTORE PUSH3 0xFFFFFF AND PUSH1 0x64 DUP3 ADD MSTORE ADDRESS PUSH1 0x84 DUP3 ADD MSTORE PUSH1 0xA4 DUP2 ADD DUP5 SWAP1 MSTORE PUSH1 0x60 DUP6 ADD CALLDATALOAD PUSH1 0xC4 DUP3 ADD MSTORE PUSH1 0x0 PUSH1 0xE4 DUP3 ADD MSTORE PUSH2 0x104 ADD PUSH1 0x40 DUP1 MLOAD PUSH1 0x1F NOT DUP2 DUP5 SUB ADD DUP2 MSTORE SWAP2 DUP2 MSTORE PUSH1 0x20 DUP3 ADD DUP1 MLOAD PUSH1 0x1 PUSH1 0x1 PUSH1 0xE0 SHL SUB AND PUSH4 0x4E45AAF PUSH1 0xE0 SHL OR SWAP1 MSTORE MLOAD SWAP1 SWAP2 POP PUSH1 0x0 SWAP1 DUP2 SWAP1 PUSH1 0x1 PUSH1 0x1 PUSH1 0xA0 SHL SUB PUSH32 0x0 AND SWAP1 PUSH2 0x941 SWAP1 DUP6 SWAP1 PUSH2 0xE77 JUMP JUMPDEST PUSH1 0x0 PUSH1 0x40 MLOAD DUP1 DUP4 SUB DUP2 PUSH1 0x0 DUP7 GAS CALL SWAP2 POP POP RETURNDATASIZE DUP1 PUSH1 0x0 DUP2 EQ PUSH2 0x97E JUMPI PUSH1 0x40 MLOAD SWAP2 POP PUSH1 0x1F NOT PUSH1 0x3F RETURNDATASIZE ADD AND DUP3 ADD PUSH1 0x40 MSTORE RETURNDATASIZE DUP3 MSTORE RETURNDATASIZE PUSH1 0x0 PUSH1 0x20 DUP5 ADD RETURNDATACOPY PUSH2 0x983 JUMP JUMPDEST PUSH1 0x60 SWAP2 POP JUMPDEST POP SWAP2 POP SWAP2 POP DUP2 PUSH2 0x9A6 JUMPI PUSH1 0x40 MLOAD PUSH4 0x81CEFF3 PUSH1 0xE4 SHL DUP2 MSTORE PUSH1 0x4 ADD PUSH1 0x40 MLOAD DUP1 SWAP2 SUB SWAP1 REVERT JUMPDEST DUP1 DUP1 PUSH1 0x20 ADD SWAP1 MLOAD DUP2 ADD SWAP1 PUSH2 0x823 SWAP2 SWAP1 PUSH2 0xE93 JUMP JUMPDEST PUSH1 0x40 MLOAD PUSH4 0x187945BD PUSH1 0xE1 SHL DUP2 MSTORE PUSH1 0x1 PUSH1 0x1 PUSH1 0xA0 SHL SUB PUSH32 0x0 AND SWAP1 PUSH4 0x30F28B7A SWAP1 PUSH2 0xA0E SWAP1 DUP9 SWAP1 DUP9 SWAP1 DUP9 SWAP1 DUP9 SWAP1 DUP9 SWAP1 PUSH1 0x4 ADD PUSH2 0xEAC JUMP JUMPDEST PUSH1 0x0 PUSH1 0x40 MLOAD DUP1 DUP4 SUB DUP2 PUSH1 0x0 DUP8 DUP1 EXTCODESIZE ISZERO DUP1 ISZERO PUSH2 0xA28 JUMPI PUSH1 0x0 DUP1 REVERT JUMPDEST POP GAS CALL ISZERO DUP1 ISZERO PUSH2 0xA3C JUMPI RETURNDATASIZE PUSH1 0x0 DUP1 RETURNDATACOPY RETURNDATASIZE PUSH1 0x0 REVERT JUMPDEST POP POP POP POP POP POP POP POP POP JUMP JUMPDEST PUSH1 0x0 DUP1 PUSH1 0x20 PUSH1 0x0 DUP5 MLOAD PUSH1 0x20 DUP7 ADD PUSH1 0x0 DUP9 GAS CALL DUP1 PUSH2 0xA6A JUMPI PUSH1 0x40 MLOAD RETURNDATASIZE PUSH1 0x0 DUP3 RETURNDATACOPY RETURNDATASIZE DUP2 REVERT JUMPDEST POP POP PUSH1 0x0 MLOAD RETURNDATASIZE SWAP2 POP DUP2 ISZERO PUSH2 0xA82 JUMPI DUP1 PUSH1 0x1 EQ ISZERO PUSH2 0xA8F JUMP JUMPDEST PUSH1 0x1 PUSH1 0x1 PUSH1 0xA0 SHL SUB DUP5 AND EXTCODESIZE ISZERO JUMPDEST ISZERO PUSH2 0x56B JUMPI PUSH1 0x40 MLOAD PUSH4 0x5274AFE7 PUSH1 0xE0 SHL DUP2 MSTORE PUSH1 0x1 PUSH1 0x1 PUSH1 0xA0 SHL SUB DUP6 AND PUSH1 0x4 DUP3 ADD MSTORE PUSH1 0x24 ADD PUSH1 0x40 MLOAD DUP1 SWAP2 SUB SWAP1 REVERT JUMPDEST PUSH1 0x40 DUP1 MLOAD PUSH1 0x1 PUSH1 0x1 PUSH1 0xA0 SHL SUB DUP5 AND PUSH1 0x24 DUP3 ADD MSTORE PUSH1 0x44 DUP1 DUP3 ADD DUP5 SWAP1 MSTORE DUP3 MLOAD DUP1 DUP4 SUB SWAP1 SWAP2 ADD DUP2 MSTORE PUSH1 0x64 SWAP1 SWAP2 ADD SWAP1 SWAP2 MSTORE PUSH1 0x20 DUP2 ADD DUP1 MLOAD PUSH1 0x1 PUSH1 0x1 PUSH1 0xE0 SHL SUB AND PUSH4 0x95EA7B3 PUSH1 0xE0 SHL OR SWAP1 MSTORE PUSH2 0xB0D DUP5 DUP3 PUSH2 0xB4C JUMP JUMPDEST PUSH2 0x56B JUMPI PUSH1 0x40 MLOAD PUSH1 0x1 PUSH1 0x1 PUSH1 0xA0 SHL SUB DUP5 DUP2 AND PUSH1 0x24 DUP4 ADD MSTORE PUSH1 0x0 PUSH1 0x44 DUP4 ADD MSTORE PUSH2 0xB42 SWAP2 DUP7 SWAP2 DUP3 AND SWAP1 PUSH4 0x95EA7B3 SWAP1 PUSH1 0x64 ADD PUSH2 0x539 JUMP JUMPDEST PUSH2 0x56B DUP5 DUP3 PUSH2 0xA47 JUMP JUMPDEST PUSH1 0x0 DUP1 PUSH1 0x0 DUP1 PUSH1 0x20 PUSH1 0x0 DUP7 MLOAD PUSH1 0x20 DUP9 ADD PUSH1 0x0 DUP11 GAS CALL SWAP3 POP RETURNDATASIZE SWAP2 POP PUSH1 0x0 MLOAD SWAP1 POP DUP3 DUP1 ISZERO PUSH2 0x823 JUMPI POP DUP2 ISZERO PUSH2 0xB82 JUMPI DUP1 PUSH1 0x1 EQ PUSH2 0x823 JUMP JUMPDEST POP POP POP POP PUSH1 0x1 PUSH1 0x1 PUSH1 0xA0 SHL SUB DUP3 AND EXTCODESIZE ISZERO ISZERO JUMPDEST SWAP3 SWAP2 POP POP JUMP JUMPDEST PUSH1 0x0 PUSH1 0xE0 DUP3 DUP5 SUB SLT ISZERO PUSH2 0xBAC JUMPI PUSH1 0x0 DUP1 REVERT JUMPDEST POP SWAP2 SWAP1 POP JUMP JUMPDEST PUSH1 0x0 PUSH1 0xE0 DUP3 DUP5 SUB SLT ISZERO PUSH2 0xBC4 JUMPI PUSH1 0x0 DUP1 REVERT JUMPDEST PUSH2 0xBCE DUP4 DUP4 PUSH2 0xB9A JUMP JUMPDEST SWAP4 SWAP3 POP POP POP JUMP JUMPDEST PUSH1 0x0 DUP1 DUP4 PUSH1 0x1F DUP5 ADD SLT PUSH2 0xBE7 JUMPI PUSH1 0x0 DUP1 REVERT JUMPDEST POP DUP2 CALLDATALOAD PUSH8 0xFFFFFFFFFFFFFFFF DUP2 GT ISZERO PUSH2 0xBFF JUMPI PUSH1 0x0 DUP1 REVERT JUMPDEST PUSH1 0x20 DUP4 ADD SWAP2 POP DUP4 PUSH1 0x20 DUP3 DUP6 ADD ADD GT ISZERO PUSH2 0xC17 JUMPI PUSH1 0x0 DUP1 REVERT JUMPDEST SWAP3 POP SWAP3 SWAP1 POP JUMP JUMPDEST PUSH1 0x0 DUP1 PUSH1 0x0 DUP1 PUSH1 0x0 PUSH2 0x120 DUP7 DUP9 SUB SLT ISZERO PUSH2 0xC37 JUMPI PUSH1 0x0 DUP1 REVERT JUMPDEST PUSH2 0xC41 DUP8 DUP8 PUSH2 0xB9A JUMP JUMPDEST SWAP5 POP PUSH1 0xE0 DUP7 ADD CALLDATALOAD PUSH8 0xFFFFFFFFFFFFFFFF DUP1 DUP3 GT ISZERO PUSH2 0xC5E JUMPI PUSH1 0x0 DUP1 REVERT JUMPDEST PUSH2 0xC6A DUP10 DUP4 DUP11 ADD PUSH2 0xBD5 JUMP JUMPDEST SWAP1 SWAP7 POP SWAP5 POP PUSH2 0x100 DUP9 ADD CALLDATALOAD SWAP2 POP DUP1 DUP3 GT ISZERO PUSH2 0xC84 JUMPI PUSH1 0x0 DUP1 REVERT JUMPDEST POP PUSH2 0xC91 DUP9 DUP3 DUP10 ADD PUSH2 0xBD5 JUMP JUMPDEST SWAP7 SWAP10 SWAP6 SWAP9 POP SWAP4 SWAP7 POP SWAP3 SWAP5 SWAP4 SWAP3 POP POP POP JUMP JUMPDEST PUSH1 0x0 PUSH1 0x20 DUP3 DUP5 SUB SLT ISZERO PUSH2 0xCB4 JUMPI PUSH1 0x0 DUP1 REVERT JUMPDEST DUP2 CALLDATALOAD PUSH1 0x1 PUSH1 0x1 PUSH1 0xA0 SHL SUB DUP2 AND DUP2 EQ PUSH2 0xBCE JUMPI PUSH1 0x0 DUP1 REVERT JUMPDEST PUSH4 0x4E487B71 PUSH1 0xE0 SHL PUSH1 0x0 MSTORE PUSH1 0x11 PUSH1 0x4 MSTORE PUSH1 0x24 PUSH1 0x0 REVERT JUMPDEST DUP1 DUP3 MUL DUP2 ISZERO DUP3 DUP3 DIV DUP5 EQ OR PUSH2 0xB94 JUMPI PUSH2 0xB94 PUSH2 0xCCB JUMP JUMPDEST PUSH1 0x0 DUP3 PUSH2 0xD15 JUMPI PUSH4 0x4E487B71 PUSH1 0xE0 SHL PUSH1 0x0 MSTORE PUSH1 0x12 PUSH1 0x4 MSTORE PUSH1 0x24 PUSH1 0x0 REVERT JUMPDEST POP DIV SWAP1 JUMP JUMPDEST DUP2 DUP2 SUB DUP2 DUP2 GT ISZERO PUSH2 0xB94 JUMPI PUSH2 0xB94 PUSH2 0xCCB JUMP JUMPDEST PUSH1 0x0 PUSH1 0x20 DUP3 DUP5 SUB SLT ISZERO PUSH2 0xD3F JUMPI PUSH1 0x0 DUP1 REVERT JUMPDEST DUP2 CALLDATALOAD DUP1 ISZERO ISZERO DUP2 EQ PUSH2 0xBCE JUMPI PUSH1 0x0 DUP1 REVERT JUMPDEST PUSH1 0x0 DUP1 PUSH1 0x40 DUP4 DUP6 SUB SLT ISZERO PUSH2 0xD62 JUMPI PUSH1 0x0 DUP1 REVERT JUMPDEST POP POP DUP1 CALLDATALOAD SWAP3 PUSH1 0x20 SWAP1 SWAP2 ADD CALLDATALOAD SWAP2 POP JUMP JUMPDEST PUSH1 0x0 PUSH1 0x20 DUP3 DUP5 SUB SLT ISZERO PUSH2 0xD83 JUMPI PUSH1 0x0 DUP1 REVERT JUMPDEST DUP2 CALLDATALOAD PUSH3 0xFFFFFF DUP2 AND DUP2 EQ PUSH2 0xBCE JUMPI PUSH1 0x0 DUP1 REVERT JUMPDEST PUSH4 0x4E487B71 PUSH1 0xE0 SHL PUSH1 0x0 MSTORE PUSH1 0x32 PUSH1 0x4 MSTORE PUSH1 0x24 PUSH1 0x0 REVERT JUMPDEST PUSH1 0x0 JUMPDEST DUP4 DUP2 LT ISZERO PUSH2 0xDC7 JUMPI DUP2 DUP2 ADD MLOAD DUP4 DUP3 ADD MSTORE PUSH1 0x20 ADD PUSH2 0xDAF JUMP JUMPDEST POP POP PUSH1 0x0 SWAP2 ADD MSTORE JUMP JUMPDEST PUSH1 0x0 DUP2 MLOAD DUP1 DUP5 MSTORE PUSH2 0xDE8 DUP2 PUSH1 0x20 DUP7 ADD PUSH1 0x20 DUP7 ADD PUSH2 0xDAC JUMP JUMPDEST PUSH1 0x1F ADD PUSH1 0x1F NOT AND SWAP3 SWAP1 SWAP3 ADD PUSH1 0x20 ADD SWAP3 SWAP2 POP POP JUMP JUMPDEST PUSH1 0x60 DUP2 MSTORE PUSH1 0x0 PUSH2 0xE0F PUSH1 0x60 DUP4 ADD DUP7 PUSH2 0xDD0 JUMP JUMPDEST PUSH1 0x20 DUP4 DUP3 SUB DUP2 DUP6 ADD MSTORE DUP2 DUP7 MLOAD DUP1 DUP5 MSTORE DUP3 DUP5 ADD SWAP2 POP DUP3 DUP2 PUSH1 0x5 SHL DUP6 ADD ADD DUP4 DUP10 ADD PUSH1 0x0 JUMPDEST DUP4 DUP2 LT ISZERO PUSH2 0xE5F JUMPI PUSH1 0x1F NOT DUP8 DUP5 SUB ADD DUP6 MSTORE PUSH2 0xE4D DUP4 DUP4 MLOAD PUSH2 0xDD0 JUMP JUMPDEST SWAP5 DUP7 ADD SWAP5 SWAP3 POP SWAP1 DUP6 ADD SWAP1 PUSH1 0x1 ADD PUSH2 0xE31 JUMP JUMPDEST POP POP DUP1 SWAP6 POP POP POP POP POP POP DUP3 PUSH1 0x40 DUP4 ADD MSTORE SWAP5 SWAP4 POP POP POP POP JUMP JUMPDEST PUSH1 0x0 DUP3 MLOAD PUSH2 0xE89 DUP2 DUP5 PUSH1 0x20 DUP8 ADD PUSH2 0xDAC JUMP JUMPDEST SWAP2 SWAP1 SWAP2 ADD SWAP3 SWAP2 POP POP JUMP JUMPDEST PUSH1 0x0 PUSH1 0x20 DUP3 DUP5 SUB SLT ISZERO PUSH2 0xEA5 JUMPI PUSH1 0x0 DUP1 REVERT JUMPDEST POP MLOAD SWAP2 SWAP1 POP JUMP JUMPDEST PUSH1 0x0 PUSH2 0x100 PUSH2 0xECF DUP4 DUP10 MLOAD DUP1 MLOAD PUSH1 0x1 PUSH1 0x1 PUSH1 0xA0 SHL SUB AND DUP3 MSTORE PUSH1 0x20 SWAP1 DUP2 ADD MLOAD SWAP2 ADD MSTORE JUMP JUMPDEST PUSH1 0x20 DUP9 ADD MLOAD PUSH1 0x40 DUP5 ADD MSTORE PUSH1 0x40 DUP9 ADD MLOAD PUSH1 0x60 DUP5 ADD MSTORE PUSH2 0xF03 PUSH1 0x80 DUP5 ADD DUP9 DUP1 MLOAD PUSH1 0x1 PUSH1 0x1 PUSH1 0xA0 SHL SUB AND DUP3 MSTORE PUSH1 0x20 SWAP1 DUP2 ADD MLOAD SWAP2 ADD MSTORE JUMP JUMPDEST PUSH1 0x1 PUSH1 0x1 PUSH1 0xA0 SHL SUB DUP7 AND PUSH1 0xC0 DUP5 ADD MSTORE PUSH1 0xE0 DUP4 ADD DUP2 SWAP1 MSTORE DUP3 ADD DUP4 SWAP1 MSTORE PUSH2 0x120 DUP4 DUP6 DUP3 DUP6 ADD CALLDATACOPY PUSH1 0x0 DUP4 DUP6 ADD DUP3 ADD MSTORE PUSH1 0x1F SWAP1 SWAP4 ADD PUSH1 0x1F NOT AND SWAP1 SWAP2 ADD SWAP1 SWAP2 ADD SWAP6 SWAP5 POP POP POP POP POP JUMP INVALID LOG2 PUSH5 0x6970667358 0x22 SLT KECCAK256 0xDC PUSH12 0xF314BB5183B69D35F7EC6988 ADDRESS ADD ISZERO XOR POP 0xCB JUMP 0x2C PUSH24 0x84A7288BBEF752A9DF64736F6C6343000814003300000000 "},"methodIdentifiers":{"BPS_DENOMINATOR()":"e1a45218","FEE_BPS()":"bf333f2c","feeRecipient()":"46904840","permit2()":"12261ee7","swap((address,address,uint256,uint256,uint24,uint256,bool))":"25e81a50","swapRouterV3()":"b631e80b","swapWithPermit((address,address,uint256,uint256,uint24,uint256,bool),bytes,bytes)":"c0270a50","universalRouterV4()":"776ca801"}}}}}