{"src/OrbIdSwapRelay.sol":{"OrbIdSwapRelay":{"abi":[{"inputs":[{"internalType":"address","name":"_permit2","type":"address"},{"internalType":"address","name":"_swapRouterV3","type":"address"},{"internalType":"address","name":"_universalRouterV4","type":"address"},{"internalType":"address","name":"_feeRecipient","type":"address"}],"stateMutability":"nonpayable","type":"constructor"},{"inputs":[],"name":"InsufficientOutput","type":"error"},{"inputs":[],"name":"InvalidAddress","type":"error"},{"inputs":[{"internalType":"address","name":"token","type":"address"}],"name":"SafeERC20FailedOperation","type":"error"},{"inputs":[],"name":"SwapFailed","type":"error"},{"anonymous":false,"inputs":[{"indexed":true,"internalType":"address","name":"user","type":"address"},{"indexed":true,"internalType":"address","name":"tokenIn","type":"address"},{"indexed":true,"internalType":"address","name":"tokenOut","type":"address"},{"indexed":false,"internalType":"uint256","name":"amountIn","type":"uint256"},{"indexed":false,"internalType":"uint256","name":"amountOut","type":"uint256"},{"indexed":false,"internalType":"uint256","name":"feeAmount","type":"uint256"}],"name":"SwapExecuted","type":"event"},{"inputs":[],"name":"BPS_DENOMINATOR","outputs":[{"internalType":"uint256","name":"","type":"uint256"}],"stateMutability":"view","type":"function"},{"inputs":[],"name":"FEE_BPS","outputs":[{"internalType":"uint256","name":"","type":"uint256"}],"stateMutability":"view","type":"function"},{"inputs":[],"name":"feeRecipient","outputs":[{"internalType":"address","name":"","type":"address"}],"stateMutability":"view","type":"function"},{"inputs":[],"name":"permit2","outputs":[{"internalType":"address","name":"","type":"address"}],"stateMutability":"view","type":"function"},{"inputs":[{"components":[{"internalType":"address","name":"tokenIn","type":"address"},{"internalType":"address","name":"tokenOut","type":"address"},{"internalType":"uint256","name":"amountIn","type":"uint256"},{"internalType":"uint256","name":"amountOutMin","type":"uint256"},{"internalType":"uint24","name":"poolFee","type":"uint24"},{"internalType":"uint256","name":"deadline","type":"uint256"},{"internalType":"bool","name":"useV4","type":"bool"}],"internalType":"struct OrbIdSwapRelay.SwapParams","name":"params","type":"tuple"}],"name":"swap","outputs":[{"internalType":"uint256","name":"amountOut","type":"uint256"}],"stateMutability":"nonpayable","type":"function"},{"inputs":[],"name":"swapRouterV3","outputs":[{"internalType":"address","name":"","type":"address"}],"stateMutability":"view","type":"function"},{"inputs":[{"components":[{"internalType":"address","name":"tokenIn","type":"address"},{"internalType":"address","name":"tokenOut","type":"address"},{"internalType":"uint256","name":"amountIn","type":"uint256"},{"internalType":"uint256","name":"amountOutMin","type":"uint256"},{"internalType":"uint24","name":"poolFee","type":"uint24"},{"internalType":"uint256","name":"deadline","type":"uint256"},{"internalType":"bool","name":"useV4","type":"bool"}],"internalType":"struct OrbIdSwapRelay.SwapParams","name":"params","type":"tuple"},{"internalType":"bytes","name":"permitData","type":"bytes"},{"internalType":"bytes","name":"signature","type":"bytes"}],"name":"swapWithPermit","outputs":[{"internalType":"uint256","name":"amountOut","type":"uint256"}],"stateMutability":"nonpayable","type":"function"},{"inputs":[],"name":"universalRouterV4","outputs":[{"internalType":"address","name":"","type":"address"}],"stateMutability":"view","type":"function"}],"evm":{"bytecode":{"linkReferences":{},"object":"6101006040523480156200001257600080fd5b5060405162001260380380620012608339810160408190526200003591620000b2565b6001600160a01b03841615806200005357506001600160a01b038116155b15620000725760405163e6c4247b60e01b815260040160405180910390fd5b6001600160a01b0393841660805291831660a052821660c0521660e0526200010f565b80516001600160a01b0381168114620000ad57600080fd5b919050565b60008060008060808587031215620000c957600080fd5b620000d48562000095565b9350620000e46020860162000095565b9250620000f46040860162000095565b9150620001046060860162000095565b905092959194509250565b60805160a05160c05160e0516110e8620001786000396000818160f7015281816101ec015261044401526000818161011e01528181610629015261074a015260008181610145015281816108af01526109bf01526000818160920152610aff01526110e86000f3fe608060405234801561001057600080fd5b50600436106100885760003560e01c8063b631e80b1161005b578063b631e80b14610140578063bf333f2c14610167578063c0270a501461016f578063e1a452181461018257600080fd5b806312261ee71461008d57806325e81a50146100d157806346904840146100f2578063776ca80114610119575b600080fd5b6100b47f000000000000000000000000000000000000000000000000000000000000000081565b6040516001600160a01b0390911681526020015b60405180910390f35b6100e46100df366004610d0a565b61018b565b6040519081526020016100c8565b6100b47f000000000000000000000000000000000000000000000000000000000000000081565b6100b47f000000000000000000000000000000000000000000000000000000000000000081565b6100b47f000000000000000000000000000000000000000000000000000000000000000081565b6100e4603281565b6100e461017d366004610d76565b610316565b6100e461271081565b60006101b5333060408501356101a46020870187610dfa565b6001600160a01b031692919061057f565b60006127106101c960326040860135610e39565b6101d39190610e50565b905060006101e5826040860135610e72565b90506102297f0000000000000000000000000000000000000000000000000000000000000000836102196020880188610dfa565b6001600160a01b031691906105ec565b61023960e0850160c08601610e85565b1561024f576102488482610622565b925061025c565b61025984826108a8565b92505b83606001358310156102815760405163bb2875c360e01b815260040160405180910390fd5b61029633846102196040880160208901610dfa565b6102a66040850160208601610dfa565b6001600160a01b03166102bc6020860186610dfa565b60408051818801358152602081018790529081018590526001600160a01b03919091169033907fad671c9d50262b75ba17bdf7e330ae0d7da971800b2526584a85f83d23296b159060600160405180910390a45050919050565b6000808061032686880188610ea7565b6040805160a08101909152919350915060009080606081018061034c60208e018e610dfa565b6001600160a01b031681526040808e0135602092830181905292845283820188905292830186905282518084018452308152808201929092528251808401909352601e83527f417474656d7074696e67205065726d697432207472616e736665722e2e2e0000908301529192506103c290610aa2565b6103cf8282338a8a610ae8565b61040d6040518060400160405280601b81526020017f5065726d697432207472616e73666572207375636365737366756c0000000000815250610aa2565b6000612710610421603260408e0135610e39565b61042b9190610e50565b9050600061043d8260408e0135610e72565b90506104777f0000000000000000000000000000000000000000000000000000000000000000838e60000160208101906102199190610dfa565b61048760e08d0160c08e01610e85565b1561049d576104968c82610622565b96506104aa565b6104a78c826108a8565b96505b8b606001358710156104cf5760405163bb2875c360e01b815260040160405180910390fd5b6104e733888e60200160208101906102199190610dfa565b6104f760408d0160208e01610dfa565b6001600160a01b031661050d60208e018e610dfa565b6001600160a01b0316336001600160a01b03167fad671c9d50262b75ba17bdf7e330ae0d7da971800b2526584a85f83d23296b158f604001358b87604051610568939291909283526020830191909152604082015260600190565b60405180910390a450505050505095945050505050565b6040516001600160a01b0384811660248301528381166044830152606482018390526105e69186918216906323b872dd906084015b604051602081830303815290604052915060e01b6020820180516001600160e01b038381831617835250505050610b75565b50505050565b6040516001600160a01b0383811660248301526044820183905261061d91859182169063a9059cbb906064016105b4565b505050565b60006106667f0000000000000000000000000000000000000000000000000000000000000000836106566020870187610dfa565b6001600160a01b03169190610bea565b60408051808201825260018082526000602083018190528351828152808501909452919290816020015b60608152602001906001900390816106905790505090506106b46020860186610dfa565b6106c46040870160208801610dfa565b6106d460a0880160808901610ec9565b604080516001600160a01b039485166020820152939092169183019190915262ffffff1660608281019190915230608083015260a0820186905286013560c082015260e0016040516020818303038152906040528160008151811061073b5761073b610eee565b602002602001018190525060007f00000000000000000000000000000000000000000000000000000000000000006001600160a01b031683838860a0013560405160240161078b93929190610f54565b60408051601f198184030181529181526020820180516001600160e01b0316630d64d59360e21b179052516107c09190610fcf565b6000604051808303816000865af19150503d80600081146107fd576040519150601f19603f3d011682016040523d82523d6000602084013e610802565b606091505b50509050806108245760405163081ceff360e41b815260040160405180910390fd5b6108346040870160208801610dfa565b6040516370a0823160e01b81523060048201526001600160a01b0391909116906370a0823190602401602060405180830381865afa15801561087a573d6000803e3d6000fd5b505050506040513d601f19601f8201168201806040525081019061089e9190610feb565b9695505050505050565b60006108dc7f0000000000000000000000000000000000000000000000000000000000000000836106566020870187610dfa565b60006108eb6020850185610dfa565b6108fb6040860160208701610dfa565b61090b60a0870160808801610ec9565b6040516001600160a01b03938416602482015292909116604483015262ffffff16606482015230608482015260a48101849052606085013560c4820152600060e48201526101040160408051601f19818403018152918152602080830180516001600160e01b03166304e45aaf60e01b17905281518083019092528082527f417474656d7074696e6720563320737761702076696120526f757465722e2e2e908201529091506109ba90610aa2565b6000807f00000000000000000000000000000000000000000000000000000000000000006001600160a01b0316836040516109f59190610fcf565b6000604051808303816000865af19150503d8060008114610a32576040519150601f19603f3d011682016040523d82523d6000602084013e610a37565b606091505b509150915081610a8e57610a7560405180604001604052806013815260200172158cc81cddd85c0818d85b1b0819985a5b1959606a1b815250610aa2565b60405163081ceff360e41b815260040160405180910390fd5b8080602001905181019061089e9190610feb565b610ae581604051602401610ab69190611004565b60408051601f198184030181529190526020810180516001600160e01b031663104c13eb60e21b179052610c7a565b50565b60405163f58a9f8b60e01b81526001600160a01b037f0000000000000000000000000000000000000000000000000000000000000000169063f58a9f8b90610b3c9088908890889088908890600401611017565b600060405180830381600087803b158015610b5657600080fd5b505af1158015610b6a573d6000803e3d6000fd5b505050505050505050565b600080602060008451602086016000885af180610b98576040513d6000823e3d81fd5b50506000513d91508115610bb0578060011415610bbd565b6001600160a01b0384163b155b156105e657604051635274afe760e01b81526001600160a01b038516600482015260240160405180910390fd5b604080516001600160a01b038416602482015260448082018490528251808303909101815260649091019091526020810180516001600160e01b031663095ea7b360e01b179052610c3b8482610c83565b6105e6576040516001600160a01b03848116602483015260006044830152610c7091869182169063095ea7b3906064016105b4565b6105e68482610b75565b610ae581610cd1565b6000806000806020600086516020880160008a5af192503d9150600051905082801561089e57508115610cb9578060011461089e565b505050506001600160a01b0382163b15155b92915050565b60006a636f6e736f6c652e6c6f679050600080835160208501845afa505050565b600060e08284031215610d0457600080fd5b50919050565b600060e08284031215610d1c57600080fd5b610d268383610cf2565b9392505050565b60008083601f840112610d3f57600080fd5b50813567ffffffffffffffff811115610d5757600080fd5b602083019150836020828501011115610d6f57600080fd5b9250929050565b60008060008060006101208688031215610d8f57600080fd5b610d998787610cf2565b945060e086013567ffffffffffffffff80821115610db657600080fd5b610dc289838a01610d2d565b9096509450610100880135915080821115610ddc57600080fd5b50610de988828901610d2d565b969995985093965092949392505050565b600060208284031215610e0c57600080fd5b81356001600160a01b0381168114610d2657600080fd5b634e487b7160e01b600052601160045260246000fd5b8082028115828204841417610ccb57610ccb610e23565b600082610e6d57634e487b7160e01b600052601260045260246000fd5b500490565b81810381811115610ccb57610ccb610e23565b600060208284031215610e9757600080fd5b81358015158114610d2657600080fd5b60008060408385031215610eba57600080fd5b50508035926020909101359150565b600060208284031215610edb57600080fd5b813562ffffff81168114610d2657600080fd5b634e487b7160e01b600052603260045260246000fd5b60005b83811015610f1f578181015183820152602001610f07565b50506000910152565b60008151808452610f40816020860160208601610f04565b601f01601f19169290920160200192915050565b606081526000610f676060830186610f28565b6020838203818501528186518084528284019150828160051b85010183890160005b83811015610fb757601f19878403018552610fa5838351610f28565b94860194925090850190600101610f89565b50508095505050505050826040830152949350505050565b60008251610fe1818460208701610f04565b9190910192915050565b600060208284031215610ffd57600080fd5b5051919050565b602081526000610d266020830184610f28565b600061010061103a83895180516001600160a01b03168252602090810151910152565b602088015160408401526040880151606084015261106e608084018880516001600160a01b03168252602090810151910152565b6001600160a01b03861660c084015260e0830181905282018390526101208385828501376000838501820152601f909301601f19169091019091019594505050505056fea2646970667358221220fc4e16b52b58953e00807e73bea0e7195df31a84eaba85d595cb8b047c67514664736f6c63430008140033","opcodes":"PUSH2 0x100 PUSH1 0x40 MSTORE CALLVALUE DUP1 ISZERO PUSH3 0x12 JUMPI PUSH1 0x0 DUP1 REVERT JUMPDEST POP PUSH1 0x40 MLOAD PUSH3 0x1260 CODESIZE SUB DUP1 PUSH3 0x1260 DUP4 CODECOPY DUP2 ADD PUSH1 0x40 DUP2 SWAP1 MSTORE PUSH3 0x35 SWAP2 PUSH3 0xB2 JUMP JUMPDEST PUSH1 0x1 PUSH1 0x1 PUSH1 0xA0 SHL SUB DUP5 AND ISZERO DUP1 PUSH3 0x53 JUMPI POP PUSH1 0x1 PUSH1 0x1 PUSH1 0xA0 SHL SUB DUP2 AND ISZERO JUMPDEST ISZERO PUSH3 0x72 JUMPI PUSH1 0x40 MLOAD PUSH4 0xE6C4247B PUSH1 0xE0 SHL DUP2 MSTORE PUSH1 0x4 ADD PUSH1 0x40 MLOAD DUP1 SWAP2 SUB SWAP1 REVERT JUMPDEST PUSH1 0x1 PUSH1 0x1 PUSH1 0xA0 SHL SUB SWAP4 DUP5 AND PUSH1 0x80 MSTORE SWAP2 DUP4 AND PUSH1 0xA0 MSTORE DUP3 AND PUSH1 0xC0 MSTORE AND PUSH1 0xE0 MSTORE PUSH3 0x10F JUMP JUMPDEST DUP1 MLOAD PUSH1 0x1 PUSH1 0x1 PUSH1 0xA0 SHL SUB DUP2 AND DUP2 EQ PUSH3 0xAD JUMPI PUSH1 0x0 DUP1 REVERT JUMPDEST SWAP2 SWAP1 POP JUMP JUMPDEST PUSH1 0x0 DUP1 PUSH1 0x0 DUP1 PUSH1 0x80 DUP6 DUP8 SUB SLT ISZERO PUSH3 0xC9 JUMPI PUSH1 0x0 DUP1 REVERT JUMPDEST PUSH3 0xD4 DUP6 PUSH3 0x95 JUMP JUMPDEST SWAP4 POP PUSH3 0xE4 PUSH1 0x20 DUP7 ADD PUSH3 0x95 JUMP JUMPDEST SWAP3 POP PUSH3 0xF4 PUSH1 0x40 DUP7 ADD PUSH3 0x95 JUMP JUMPDEST SWAP2 POP PUSH3 0x104 PUSH1 0x60 DUP7 ADD PUSH3 0x95 JUMP JUMPDEST SWAP1 POP SWAP3 SWAP6 SWAP2 SWAP5 POP SWAP3 POP JUMP JUMPDEST PUSH1 0x80 MLOAD PUSH1 0xA0 MLOAD PUSH1 0xC0 MLOAD PUSH1 0xE0 MLOAD PUSH2 0x10E8 PUSH3 0x178 PUSH1 0x0 CODECOPY PUSH1 0x0 DUP2 DUP2 PUSH1 0xF7 ADD MSTORE DUP2 DUP2 PUSH2 0x1EC ADD MSTORE PUSH2 0x444 ADD MSTORE PUSH1 0x0 DUP2 DUP2 PUSH2 0x11E ADD MSTORE DUP2 DUP2 PUSH2 0x629 ADD MSTORE PUSH2 0x74A ADD MSTORE PUSH1 0x0 DUP2 DUP2 PUSH2 0x145 ADD MSTORE DUP2 DUP2 PUSH2 0x8AF ADD MSTORE PUSH2 0x9BF ADD MSTORE PUSH1 0x0 DUP2 DUP2 PUSH1 0x92 ADD MSTORE PUSH2 0xAFF ADD MSTORE PUSH2 0x10E8 PUSH1 0x0 RETURN INVALID PUSH1 0x80 PUSH1 0x40 MSTORE CALLVALUE DUP1 ISZERO PUSH2 0x10 JUMPI PUSH1 0x0 DUP1 REVERT JUMPDEST POP PUSH1 0x4 CALLDATASIZE LT PUSH2 0x88 JUMPI PUSH1 0x0 CALLDATALOAD PUSH1 0xE0 SHR DUP1 PUSH4 0xB631E80B GT PUSH2 0x5B JUMPI DUP1 PUSH4 0xB631E80B EQ PUSH2 0x140 JUMPI DUP1 PUSH4 0xBF333F2C EQ PUSH2 0x167 JUMPI DUP1 PUSH4 0xC0270A50 EQ PUSH2 0x16F JUMPI DUP1 PUSH4 0xE1A45218 EQ PUSH2 0x182 JUMPI PUSH1 0x0 DUP1 REVERT JUMPDEST DUP1 PUSH4 0x12261EE7 EQ PUSH2 0x8D JUMPI DUP1 PUSH4 0x25E81A50 EQ PUSH2 0xD1 JUMPI DUP1 PUSH4 0x46904840 EQ PUSH2 0xF2 JUMPI DUP1 PUSH4 0x776CA801 EQ PUSH2 0x119 JUMPI JUMPDEST PUSH1 0x0 DUP1 REVERT JUMPDEST PUSH2 0xB4 PUSH32 0x0 DUP2 JUMP JUMPDEST PUSH1 0x40 MLOAD PUSH1 0x1 PUSH1 0x1 PUSH1 0xA0 SHL SUB SWAP1 SWAP2 AND DUP2 MSTORE PUSH1 0x20 ADD JUMPDEST PUSH1 0x40 MLOAD DUP1 SWAP2 SUB SWAP1 RETURN JUMPDEST PUSH2 0xE4 PUSH2 0xDF CALLDATASIZE PUSH1 0x4 PUSH2 0xD0A JUMP JUMPDEST PUSH2 0x18B JUMP JUMPDEST PUSH1 0x40 MLOAD SWAP1 DUP2 MSTORE PUSH1 0x20 ADD PUSH2 0xC8 JUMP JUMPDEST PUSH2 0xB4 PUSH32 0x0 DUP2 JUMP JUMPDEST PUSH2 0xB4 PUSH32 0x0 DUP2 JUMP JUMPDEST PUSH2 0xB4 PUSH32 0x0 DUP2 JUMP JUMPDEST PUSH2 0xE4 PUSH1 0x32 DUP2 JUMP JUMPDEST PUSH2 0xE4 PUSH2 0x17D CALLDATASIZE PUSH1 0x4 PUSH2 0xD76 JUMP JUMPDEST PUSH2 0x316 JUMP JUMPDEST PUSH2 0xE4 PUSH2 0x2710 DUP2 JUMP JUMPDEST PUSH1 0x0 PUSH2 0x1B5 CALLER ADDRESS PUSH1 0x40 DUP6 ADD CALLDATALOAD PUSH2 0x1A4 PUSH1 0x20 DUP8 ADD DUP8 PUSH2 0xDFA JUMP JUMPDEST PUSH1 0x1 PUSH1 0x1 PUSH1 0xA0 SHL SUB AND SWAP3 SWAP2 SWAP1 PUSH2 0x57F JUMP JUMPDEST PUSH1 0x0 PUSH2 0x2710 PUSH2 0x1C9 PUSH1 0x32 PUSH1 0x40 DUP7 ADD CALLDATALOAD PUSH2 0xE39 JUMP JUMPDEST PUSH2 0x1D3 SWAP2 SWAP1 PUSH2 0xE50 JUMP JUMPDEST SWAP1 POP PUSH1 0x0 PUSH2 0x1E5 DUP3 PUSH1 0x40 DUP7 ADD CALLDATALOAD PUSH2 0xE72 JUMP JUMPDEST SWAP1 POP PUSH2 0x229 PUSH32 0x0 DUP4 PUSH2 0x219 PUSH1 0x20 DUP9 ADD DUP9 PUSH2 0xDFA JUMP JUMPDEST PUSH1 0x1 PUSH1 0x1 PUSH1 0xA0 SHL SUB AND SWAP2 SWAP1 PUSH2 0x5EC JUMP JUMPDEST PUSH2 0x239 PUSH1 0xE0 DUP6 ADD PUSH1 0xC0 DUP7 ADD PUSH2 0xE85 JUMP JUMPDEST ISZERO PUSH2 0x24F JUMPI PUSH2 0x248 DUP5 DUP3 PUSH2 0x622 JUMP JUMPDEST SWAP3 POP PUSH2 0x25C JUMP JUMPDEST PUSH2 0x259 DUP5 DUP3 PUSH2 0x8A8 JUMP JUMPDEST SWAP3 POP JUMPDEST DUP4 PUSH1 0x60 ADD CALLDATALOAD DUP4 LT ISZERO PUSH2 0x281 JUMPI PUSH1 0x40 MLOAD PUSH4 0xBB2875C3 PUSH1 0xE0 SHL DUP2 MSTORE PUSH1 0x4 ADD PUSH1 0x40 MLOAD DUP1 SWAP2 SUB SWAP1 REVERT JUMPDEST PUSH2 0x296 CALLER DUP5 PUSH2 0x219 PUSH1 0x40 DUP9 ADD PUSH1 0x20 DUP10 ADD PUSH2 0xDFA JUMP JUMPDEST PUSH2 0x2A6 PUSH1 0x40 DUP6 ADD PUSH1 0x20 DUP7 ADD PUSH2 0xDFA JUMP JUMPDEST PUSH1 0x1 PUSH1 0x1 PUSH1 0xA0 SHL SUB AND PUSH2 0x2BC PUSH1 0x20 DUP7 ADD DUP7 PUSH2 0xDFA JUMP JUMPDEST PUSH1 0x40 DUP1 MLOAD DUP2 DUP9 ADD CALLDATALOAD DUP2 MSTORE PUSH1 0x20 DUP2 ADD DUP8 SWAP1 MSTORE SWAP1 DUP2 ADD DUP6 SWAP1 MSTORE PUSH1 0x1 PUSH1 0x1 PUSH1 0xA0 SHL SUB SWAP2 SWAP1 SWAP2 AND SWAP1 CALLER SWAP1 PUSH32 0xAD671C9D50262B75BA17BDF7E330AE0D7DA971800B2526584A85F83D23296B15 SWAP1 PUSH1 0x60 ADD PUSH1 0x40 MLOAD DUP1 SWAP2 SUB SWAP1 LOG4 POP POP SWAP2 SWAP1 POP JUMP JUMPDEST PUSH1 0x0 DUP1 DUP1 PUSH2 0x326 DUP7 DUP9 ADD DUP9 PUSH2 0xEA7 JUMP JUMPDEST PUSH1 0x40 DUP1 MLOAD PUSH1 0xA0 DUP2 ADD SWAP1 SWAP2 MSTORE SWAP2 SWAP4 POP SWAP2 POP PUSH1 0x0 SWAP1 DUP1 PUSH1 0x60 DUP2 ADD DUP1 PUSH2 0x34C PUSH1 0x20 DUP15 ADD DUP15 PUSH2 0xDFA JUMP JUMPDEST PUSH1 0x1 PUSH1 0x1 PUSH1 0xA0 SHL SUB AND DUP2 MSTORE PUSH1 0x40 DUP1 DUP15 ADD CALLDATALOAD PUSH1 0x20 SWAP3 DUP4 ADD DUP2 SWAP1 MSTORE SWAP3 DUP5 MSTORE DUP4 DUP3 ADD DUP9 SWAP1 MSTORE SWAP3 DUP4 ADD DUP7 SWAP1 MSTORE DUP3 MLOAD DUP1 DUP5 ADD DUP5 MSTORE ADDRESS DUP2 MSTORE DUP1 DUP3 ADD SWAP3 SWAP1 SWAP3 MSTORE DUP3 MLOAD DUP1 DUP5 ADD SWAP1 SWAP4 MSTORE PUSH1 0x1E DUP4 MSTORE PUSH32 0x417474656D7074696E67205065726D697432207472616E736665722E2E2E0000 SWAP1 DUP4 ADD MSTORE SWAP2 SWAP3 POP PUSH2 0x3C2 SWAP1 PUSH2 0xAA2 JUMP JUMPDEST PUSH2 0x3CF DUP3 DUP3 CALLER DUP11 DUP11 PUSH2 0xAE8 JUMP JUMPDEST PUSH2 0x40D PUSH1 0x40 MLOAD DUP1 PUSH1 0x40 ADD PUSH1 0x40 MSTORE DUP1 PUSH1 0x1B DUP2 MSTORE PUSH1 0x20 ADD PUSH32 0x5065726D697432207472616E73666572207375636365737366756C0000000000 DUP2 MSTORE POP PUSH2 0xAA2 JUMP JUMPDEST PUSH1 0x0 PUSH2 0x2710 PUSH2 0x421 PUSH1 0x32 PUSH1 0x40 DUP15 ADD CALLDATALOAD PUSH2 0xE39 JUMP JUMPDEST PUSH2 0x42B SWAP2 SWAP1 PUSH2 0xE50 JUMP JUMPDEST SWAP1 POP PUSH1 0x0 PUSH2 0x43D DUP3 PUSH1 0x40 DUP15 ADD CALLDATALOAD PUSH2 0xE72 JUMP JUMPDEST SWAP1 POP PUSH2 0x477 PUSH32 0x0 DUP4 DUP15 PUSH1 0x0 ADD PUSH1 0x20 DUP2 ADD SWAP1 PUSH2 0x219 SWAP2 SWAP1 PUSH2 0xDFA JUMP JUMPDEST PUSH2 0x487 PUSH1 0xE0 DUP14 ADD PUSH1 0xC0 DUP15 ADD PUSH2 0xE85 JUMP JUMPDEST ISZERO PUSH2 0x49D JUMPI PUSH2 0x496 DUP13 DUP3 PUSH2 0x622 JUMP JUMPDEST SWAP7 POP PUSH2 0x4AA JUMP JUMPDEST PUSH2 0x4A7 DUP13 DUP3 PUSH2 0x8A8 JUMP JUMPDEST SWAP7 POP JUMPDEST DUP12 PUSH1 0x60 ADD CALLDATALOAD DUP8 LT ISZERO PUSH2 0x4CF JUMPI PUSH1 0x40 MLOAD PUSH4 0xBB2875C3 PUSH1 0xE0 SHL DUP2 MSTORE PUSH1 0x4 ADD PUSH1 0x40 MLOAD DUP1 SWAP2 SUB SWAP1 REVERT JUMPDEST PUSH2 0x4E7 CALLER DUP9 DUP15 PUSH1 0x20 ADD PUSH1 0x20 DUP2 ADD SWAP1 PUSH2 0x219 SWAP2 SWAP1 PUSH2 0xDFA JUMP JUMPDEST PUSH2 0x4F7 PUSH1 0x40 DUP14 ADD PUSH1 0x20 DUP15 ADD PUSH2 0xDFA JUMP JUMPDEST PUSH1 0x1 PUSH1 0x1 PUSH1 0xA0 SHL SUB AND PUSH2 0x50D PUSH1 0x20 DUP15 ADD DUP15 PUSH2 0xDFA JUMP JUMPDEST PUSH1 0x1 PUSH1 0x1 PUSH1 0xA0 SHL SUB AND CALLER PUSH1 0x1 PUSH1 0x1 PUSH1 0xA0 SHL SUB AND PUSH32 0xAD671C9D50262B75BA17BDF7E330AE0D7DA971800B2526584A85F83D23296B15 DUP16 PUSH1 0x40 ADD CALLDATALOAD DUP12 DUP8 PUSH1 0x40 MLOAD PUSH2 0x568 SWAP4 SWAP3 SWAP2 SWAP1 SWAP3 DUP4 MSTORE PUSH1 0x20 DUP4 ADD SWAP2 SWAP1 SWAP2 MSTORE PUSH1 0x40 DUP3 ADD MSTORE PUSH1 0x60 ADD SWAP1 JUMP JUMPDEST PUSH1 0x40 MLOAD DUP1 SWAP2 SUB SWAP1 LOG4 POP POP POP POP POP POP SWAP6 SWAP5 POP POP POP POP POP JUMP JUMPDEST PUSH1 0x40 MLOAD PUSH1 0x1 PUSH1 0x1 PUSH1 0xA0 SHL SUB DUP5 DUP2 AND PUSH1 0x24 DUP4 ADD MSTORE DUP4 DUP2 AND PUSH1 0x44 DUP4 ADD MSTORE PUSH1 0x64 DUP3 ADD DUP4 SWAP1 MSTORE PUSH2 0x5E6 SWAP2 DUP7 SWAP2 DUP3 AND SWAP1 PUSH4 0x23B872DD SWAP1 PUSH1 0x84 ADD JUMPDEST PUSH1 0x40 MLOAD PUSH1 0x20 DUP2 DUP4 SUB SUB DUP2 MSTORE SWAP1 PUSH1 0x40 MSTORE SWAP2 POP PUSH1 0xE0 SHL PUSH1 0x20 DUP3 ADD DUP1 MLOAD PUSH1 0x1 PUSH1 0x1 PUSH1 0xE0 SHL SUB DUP4 DUP2 DUP4 AND OR DUP4 MSTORE POP POP POP POP PUSH2 0xB75 JUMP JUMPDEST POP POP POP POP JUMP JUMPDEST PUSH1 0x40 MLOAD PUSH1 0x1 PUSH1 0x1 PUSH1 0xA0 SHL SUB DUP4 DUP2 AND PUSH1 0x24 DUP4 ADD MSTORE PUSH1 0x44 DUP3 ADD DUP4 SWAP1 MSTORE PUSH2 0x61D SWAP2 DUP6 SWAP2 DUP3 AND SWAP1 PUSH4 0xA9059CBB SWAP1 PUSH1 0x64 ADD PUSH2 0x5B4 JUMP JUMPDEST POP POP POP JUMP JUMPDEST PUSH1 0x0 PUSH2 0x666 PUSH32 0x0 DUP4 PUSH2 0x656 PUSH1 0x20 DUP8 ADD DUP8 PUSH2 0xDFA JUMP JUMPDEST PUSH1 0x1 PUSH1 0x1 PUSH1 0xA0 SHL SUB AND SWAP2 SWAP1 PUSH2 0xBEA JUMP JUMPDEST PUSH1 0x40 DUP1 MLOAD DUP1 DUP3 ADD DUP3 MSTORE PUSH1 0x1 DUP1 DUP3 MSTORE PUSH1 0x0 PUSH1 0x20 DUP4 ADD DUP2 SWAP1 MSTORE DUP4 MLOAD DUP3 DUP2 MSTORE DUP1 DUP6 ADD SWAP1 SWAP5 MSTORE SWAP2 SWAP3 SWAP1 DUP2 PUSH1 0x20 ADD JUMPDEST PUSH1 0x60 DUP2 MSTORE PUSH1 0x20 ADD SWAP1 PUSH1 0x1 SWAP1 SUB SWAP1 DUP2 PUSH2 0x690 JUMPI SWAP1 POP POP SWAP1 POP PUSH2 0x6B4 PUSH1 0x20 DUP7 ADD DUP7 PUSH2 0xDFA JUMP JUMPDEST PUSH2 0x6C4 PUSH1 0x40 DUP8 ADD PUSH1 0x20 DUP9 ADD PUSH2 0xDFA JUMP JUMPDEST PUSH2 0x6D4 PUSH1 0xA0 DUP9 ADD PUSH1 0x80 DUP10 ADD PUSH2 0xEC9 JUMP JUMPDEST PUSH1 0x40 DUP1 MLOAD PUSH1 0x1 PUSH1 0x1 PUSH1 0xA0 SHL SUB SWAP5 DUP6 AND PUSH1 0x20 DUP3 ADD MSTORE SWAP4 SWAP1 SWAP3 AND SWAP2 DUP4 ADD SWAP2 SWAP1 SWAP2 MSTORE PUSH3 0xFFFFFF AND PUSH1 0x60 DUP3 DUP2 ADD SWAP2 SWAP1 SWAP2 MSTORE ADDRESS PUSH1 0x80 DUP4 ADD MSTORE PUSH1 0xA0 DUP3 ADD DUP7 SWAP1 MSTORE DUP7 ADD CALLDATALOAD PUSH1 0xC0 DUP3 ADD MSTORE PUSH1 0xE0 ADD PUSH1 0x40 MLOAD PUSH1 0x20 DUP2 DUP4 SUB SUB DUP2 MSTORE SWAP1 PUSH1 0x40 MSTORE DUP2 PUSH1 0x0 DUP2 MLOAD DUP2 LT PUSH2 0x73B JUMPI PUSH2 0x73B PUSH2 0xEEE JUMP JUMPDEST PUSH1 0x20 MUL PUSH1 0x20 ADD ADD DUP2 SWAP1 MSTORE POP PUSH1 0x0 PUSH32 0x0 PUSH1 0x1 PUSH1 0x1 PUSH1 0xA0 SHL SUB AND DUP4 DUP4 DUP9 PUSH1 0xA0 ADD CALLDATALOAD PUSH1 0x40 MLOAD PUSH1 0x24 ADD PUSH2 0x78B SWAP4 SWAP3 SWAP2 SWAP1 PUSH2 0xF54 JUMP JUMPDEST PUSH1 0x40 DUP1 MLOAD PUSH1 0x1F NOT DUP2 DUP5 SUB ADD DUP2 MSTORE SWAP2 DUP2 MSTORE PUSH1 0x20 DUP3 ADD DUP1 MLOAD PUSH1 0x1 PUSH1 0x1 PUSH1 0xE0 SHL SUB AND PUSH4 0xD64D593 PUSH1 0xE2 SHL OR SWAP1 MSTORE MLOAD PUSH2 0x7C0 SWAP2 SWAP1 PUSH2 0xFCF JUMP JUMPDEST PUSH1 0x0 PUSH1 0x40 MLOAD DUP1 DUP4 SUB DUP2 PUSH1 0x0 DUP7 GAS CALL SWAP2 POP POP RETURNDATASIZE DUP1 PUSH1 0x0 DUP2 EQ PUSH2 0x7FD JUMPI PUSH1 0x40 MLOAD SWAP2 POP PUSH1 0x1F NOT PUSH1 0x3F RETURNDATASIZE ADD AND DUP3 ADD PUSH1 0x40 MSTORE RETURNDATASIZE DUP3 MSTORE RETURNDATASIZE PUSH1 0x0 PUSH1 0x20 DUP5 ADD RETURNDATACOPY PUSH2 0x802 JUMP JUMPDEST PUSH1 0x60 SWAP2 POP JUMPDEST POP POP SWAP1 POP DUP1 PUSH2 0x824 JUMPI PUSH1 0x40 MLOAD PUSH4 0x81CEFF3 PUSH1 0xE4 SHL DUP2 MSTORE PUSH1 0x4 ADD PUSH1 0x40 MLOAD DUP1 SWAP2 SUB SWAP1 REVERT JUMPDEST PUSH2 0x834 PUSH1 0x40 DUP8 ADD PUSH1 0x20 DUP9 ADD PUSH2 0xDFA JUMP JUMPDEST PUSH1 0x40 MLOAD PUSH4 0x70A08231 PUSH1 0xE0 SHL DUP2 MSTORE ADDRESS PUSH1 0x4 DUP3 ADD MSTORE PUSH1 0x1 PUSH1 0x1 PUSH1 0xA0 SHL SUB SWAP2 SWAP1 SWAP2 AND SWAP1 PUSH4 0x70A08231 SWAP1 PUSH1 0x24 ADD PUSH1 0x20 PUSH1 0x40 MLOAD DUP1 DUP4 SUB DUP2 DUP7 GAS STATICCALL ISZERO DUP1 ISZERO PUSH2 0x87A JUMPI RETURNDATASIZE PUSH1 0x0 DUP1 RETURNDATACOPY RETURNDATASIZE PUSH1 0x0 REVERT JUMPDEST POP POP POP POP PUSH1 0x40 MLOAD RETURNDATASIZE PUSH1 0x1F NOT PUSH1 0x1F DUP3 ADD AND DUP3 ADD DUP1 PUSH1 0x40 MSTORE POP DUP2 ADD SWAP1 PUSH2 0x89E SWAP2 SWAP1 PUSH2 0xFEB JUMP JUMPDEST SWAP7 SWAP6 POP POP POP POP POP POP JUMP JUMPDEST PUSH1 0x0 PUSH2 0x8DC PUSH32 0x0 DUP4 PUSH2 0x656 PUSH1 0x20 DUP8 ADD DUP8 PUSH2 0xDFA JUMP JUMPDEST PUSH1 0x0 PUSH2 0x8EB PUSH1 0x20 DUP6 ADD DUP6 PUSH2 0xDFA JUMP JUMPDEST PUSH2 0x8FB PUSH1 0x40 DUP7 ADD PUSH1 0x20 DUP8 ADD PUSH2 0xDFA JUMP JUMPDEST PUSH2 0x90B PUSH1 0xA0 DUP8 ADD PUSH1 0x80 DUP9 ADD PUSH2 0xEC9 JUMP JUMPDEST PUSH1 0x40 MLOAD PUSH1 0x1 PUSH1 0x1 PUSH1 0xA0 SHL SUB SWAP4 DUP5 AND PUSH1 0x24 DUP3 ADD MSTORE SWAP3 SWAP1 SWAP2 AND PUSH1 0x44 DUP4 ADD MSTORE PUSH3 0xFFFFFF AND PUSH1 0x64 DUP3 ADD MSTORE ADDRESS PUSH1 0x84 DUP3 ADD MSTORE PUSH1 0xA4 DUP2 ADD DUP5 SWAP1 MSTORE PUSH1 0x60 DUP6 ADD CALLDATALOAD PUSH1 0xC4 DUP3 ADD MSTORE PUSH1 0x0 PUSH1 0xE4 DUP3 ADD MSTORE PUSH2 0x104 ADD PUSH1 0x40 DUP1 MLOAD PUSH1 0x1F NOT DUP2 DUP5 SUB ADD DUP2 MSTORE SWAP2 DUP2 MSTORE PUSH1 0x20 DUP1 DUP4 ADD DUP1 MLOAD PUSH1 0x1 PUSH1 0x1 PUSH1 0xE0 SHL SUB AND PUSH4 0x4E45AAF PUSH1 0xE0 SHL OR SWAP1 MSTORE DUP2 MLOAD DUP1 DUP4 ADD SWAP1 SWAP3 MSTORE DUP1 DUP3 MSTORE PUSH32 0x417474656D7074696E6720563320737761702076696120526F757465722E2E2E SWAP1 DUP3 ADD MSTORE SWAP1 SWAP2 POP PUSH2 0x9BA SWAP1 PUSH2 0xAA2 JUMP JUMPDEST PUSH1 0x0 DUP1 PUSH32 0x0 PUSH1 0x1 PUSH1 0x1 PUSH1 0xA0 SHL SUB AND DUP4 PUSH1 0x40 MLOAD PUSH2 0x9F5 SWAP2 SWAP1 PUSH2 0xFCF JUMP JUMPDEST PUSH1 0x0 PUSH1 0x40 MLOAD DUP1 DUP4 SUB DUP2 PUSH1 0x0 DUP7 GAS CALL SWAP2 POP POP RETURNDATASIZE DUP1 PUSH1 0x0 DUP2 EQ PUSH2 0xA32 JUMPI PUSH1 0x40 MLOAD SWAP2 POP PUSH1 0x1F NOT PUSH1 0x3F RETURNDATASIZE ADD AND DUP3 ADD PUSH1 0x40 MSTORE RETURNDATASIZE DUP3 MSTORE RETURNDATASIZE PUSH1 0x0 PUSH1 0x20 DUP5 ADD RETURNDATACOPY PUSH2 0xA37 JUMP JUMPDEST PUSH1 0x60 SWAP2 POP JUMPDEST POP SWAP2 POP SWAP2 POP DUP2 PUSH2 0xA8E JUMPI PUSH2 0xA75 PUSH1 0x40 MLOAD DUP1 PUSH1 0x40 ADD PUSH1 0x40 MSTORE DUP1 PUSH1 0x13 DUP2 MSTORE PUSH1 0x20 ADD PUSH19 0x158CC81CDDD85C0818D85B1B0819985A5B1959 PUSH1 0x6A SHL DUP2 MSTORE POP PUSH2 0xAA2 JUMP JUMPDEST PUSH1 0x40 MLOAD PUSH4 0x81CEFF3 PUSH1 0xE4 SHL DUP2 MSTORE PUSH1 0x4 ADD PUSH1 0x40 MLOAD DUP1 SWAP2 SUB SWAP1 REVERT JUMPDEST DUP1 DUP1 PUSH1 0x20 ADD SWAP1 MLOAD DUP2 ADD SWAP1 PUSH2 0x89E SWAP2 SWAP1 PUSH2 0xFEB JUMP JUMPDEST PUSH2 0xAE5 DUP2 PUSH1 0x40 MLOAD PUSH1 0x24 ADD PUSH2 0xAB6 SWAP2 SWAP1 PUSH2 0x1004 JUMP JUMPDEST PUSH1 0x40 DUP1 MLOAD PUSH1 0x1F NOT DUP2 DUP5 SUB ADD DUP2 MSTORE SWAP2 SWAP1 MSTORE PUSH1 0x20 DUP2 ADD DUP1 MLOAD PUSH1 0x1 PUSH1 0x1 PUSH1 0xE0 SHL SUB AND PUSH4 0x104C13EB PUSH1 0xE2 SHL OR SWAP1 MSTORE PUSH2 0xC7A JUMP JUMPDEST POP JUMP JUMPDEST PUSH1 0x40 MLOAD PUSH4 0xF58A9F8B PUSH1 0xE0 SHL DUP2 MSTORE PUSH1 0x1 PUSH1 0x1 PUSH1 0xA0 SHL SUB PUSH32 0x0 AND SWAP1 PUSH4 0xF58A9F8B SWAP1 PUSH2 0xB3C SWAP1 DUP9 SWAP1 DUP9 SWAP1 DUP9 SWAP1 DUP9 SWAP1 DUP9 SWAP1 PUSH1 0x4 ADD PUSH2 0x1017 JUMP JUMPDEST PUSH1 0x0 PUSH1 0x40 MLOAD DUP1 DUP4 SUB DUP2 PUSH1 0x0 DUP8 DUP1 EXTCODESIZE ISZERO DUP1 ISZERO PUSH2 0xB56 JUMPI PUSH1 0x0 DUP1 REVERT JUMPDEST POP GAS CALL ISZERO DUP1 ISZERO PUSH2 0xB6A JUMPI RETURNDATASIZE PUSH1 0x0 DUP1 RETURNDATACOPY RETURNDATASIZE PUSH1 0x0 REVERT JUMPDEST POP POP POP POP POP POP POP POP POP JUMP JUMPDEST PUSH1 0x0 DUP1 PUSH1 0x20 PUSH1 0x0 DUP5 MLOAD PUSH1 0x20 DUP7 ADD PUSH1 0x0 DUP9 GAS CALL DUP1 PUSH2 0xB98 JUMPI PUSH1 0x40 MLOAD RETURNDATASIZE PUSH1 0x0 DUP3 RETURNDATACOPY RETURNDATASIZE DUP2 REVERT JUMPDEST POP POP PUSH1 0x0 MLOAD RETURNDATASIZE SWAP2 POP DUP2 ISZERO PUSH2 0xBB0 JUMPI DUP1 PUSH1 0x1 EQ ISZERO PUSH2 0xBBD JUMP JUMPDEST PUSH1 0x1 PUSH1 0x1 PUSH1 0xA0 SHL SUB DUP5 AND EXTCODESIZE ISZERO JUMPDEST ISZERO PUSH2 0x5E6 JUMPI PUSH1 0x40 MLOAD PUSH4 0x5274AFE7 PUSH1 0xE0 SHL DUP2 MSTORE PUSH1 0x1 PUSH1 0x1 PUSH1 0xA0 SHL SUB DUP6 AND PUSH1 0x4 DUP3 ADD MSTORE PUSH1 0x24 ADD PUSH1 0x40 MLOAD DUP1 SWAP2 SUB SWAP1 REVERT JUMPDEST PUSH1 0x40 DUP1 MLOAD PUSH1 0x1 PUSH1 0x1 PUSH1 0xA0 SHL SUB DUP5 AND PUSH1 0x24 DUP3 ADD MSTORE PUSH1 0x44 DUP1 DUP3 ADD DUP5 SWAP1 MSTORE DUP3 MLOAD DUP1 DUP4 SUB SWAP1 SWAP2 ADD DUP2 MSTORE PUSH1 0x64 SWAP1 SWAP2 ADD SWAP1 SWAP2 MSTORE PUSH1 0x20 DUP2 ADD DUP1 MLOAD PUSH1 0x1 PUSH1 0x1 PUSH1 0xE0 SHL SUB AND PUSH4 0x95EA7B3 PUSH1 0xE0 SHL OR SWAP1 MSTORE PUSH2 0xC3B DUP5 DUP3 PUSH2 0xC83 JUMP JUMPDEST PUSH2 0x5E6 JUMPI PUSH1 0x40 MLOAD PUSH1 0x1 PUSH1 0x1 PUSH1 0xA0 SHL SUB DUP5 DUP2 AND PUSH1 0x24 DUP4 ADD MSTORE PUSH1 0x0 PUSH1 0x44 DUP4 ADD MSTORE PUSH2 0xC70 SWAP2 DUP7 SWAP2 DUP3 AND SWAP1 PUSH4 0x95EA7B3 SWAP1 PUSH1 0x64 ADD PUSH2 0x5B4 JUMP JUMPDEST PUSH2 0x5E6 DUP5 DUP3 PUSH2 0xB75 JUMP JUMPDEST PUSH2 0xAE5 DUP2 PUSH2 0xCD1 JUMP JUMPDEST PUSH1 0x0 DUP1 PUSH1 0x0 DUP1 PUSH1 0x20 PUSH1 0x0 DUP7 MLOAD PUSH1 0x20 DUP9 ADD PUSH1 0x0 DUP11 GAS CALL SWAP3 POP RETURNDATASIZE SWAP2 POP PUSH1 0x0 MLOAD SWAP1 POP DUP3 DUP1 ISZERO PUSH2 0x89E JUMPI POP DUP2 ISZERO PUSH2 0xCB9 JUMPI DUP1 PUSH1 0x1 EQ PUSH2 0x89E JUMP JUMPDEST POP POP POP POP PUSH1 0x1 PUSH1 0x1 PUSH1 0xA0 SHL SUB DUP3 AND EXTCODESIZE ISZERO ISZERO JUMPDEST SWAP3 SWAP2 POP POP JUMP JUMPDEST PUSH1 0x0 PUSH11 0x636F6E736F6C652E6C6F67 SWAP1 POP PUSH1 0x0 DUP1 DUP4 MLOAD PUSH1 0x20 DUP6 ADD DUP5 GAS STATICCALL POP POP POP JUMP JUMPDEST PUSH1 0x0 PUSH1 0xE0 DUP3 DUP5 SUB SLT ISZERO PUSH2 0xD04 JUMPI PUSH1 0x0 DUP1 REVERT JUMPDEST POP SWAP2 SWAP1 POP JUMP JUMPDEST PUSH1 0x0 PUSH1 0xE0 DUP3 DUP5 SUB SLT ISZERO PUSH2 0xD1C JUMPI PUSH1 0x0 DUP1 REVERT JUMPDEST PUSH2 0xD26 DUP4 DUP4 PUSH2 0xCF2 JUMP JUMPDEST SWAP4 SWAP3 POP POP POP JUMP JUMPDEST PUSH1 0x0 DUP1 DUP4 PUSH1 0x1F DUP5 ADD SLT PUSH2 0xD3F JUMPI PUSH1 0x0 DUP1 REVERT JUMPDEST POP DUP2 CALLDATALOAD PUSH8 0xFFFFFFFFFFFFFFFF DUP2 GT ISZERO PUSH2 0xD57 JUMPI PUSH1 0x0 DUP1 REVERT JUMPDEST PUSH1 0x20 DUP4 ADD SWAP2 POP DUP4 PUSH1 0x20 DUP3 DUP6 ADD ADD GT ISZERO PUSH2 0xD6F JUMPI PUSH1 0x0 DUP1 REVERT JUMPDEST SWAP3 POP SWAP3 SWAP1 POP JUMP JUMPDEST PUSH1 0x0 DUP1 PUSH1 0x0 DUP1 PUSH1 0x0 PUSH2 0x120 DUP7 DUP9 SUB SLT ISZERO PUSH2 0xD8F JUMPI PUSH1 0x0 DUP1 REVERT JUMPDEST PUSH2 0xD99 DUP8 DUP8 PUSH2 0xCF2 JUMP JUMPDEST SWAP5 POP PUSH1 0xE0 DUP7 ADD CALLDATALOAD PUSH8 0xFFFFFFFFFFFFFFFF DUP1 DUP3 GT ISZERO PUSH2 0xDB6 JUMPI PUSH1 0x0 DUP1 REVERT JUMPDEST PUSH2 0xDC2 DUP10 DUP4 DUP11 ADD PUSH2 0xD2D JUMP JUMPDEST SWAP1 SWAP7 POP SWAP5 POP PUSH2 0x100 DUP9 ADD CALLDATALOAD SWAP2 POP DUP1 DUP3 GT ISZERO PUSH2 0xDDC JUMPI PUSH1 0x0 DUP1 REVERT JUMPDEST POP PUSH2 0xDE9 DUP9 DUP3 DUP10 ADD PUSH2 0xD2D JUMP JUMPDEST SWAP7 SWAP10 SWAP6 SWAP9 POP SWAP4 SWAP7 POP SWAP3 SWAP5 SWAP4 SWAP3 POP POP POP JUMP JUMPDEST PUSH1 0x0 PUSH1 0x20 DUP3 DUP5 SUB SLT ISZERO PUSH2 0xE0C JUMPI PUSH1 0x0 DUP1 REVERT JUMPDEST DUP2 CALLDATALOAD PUSH1 0x1 PUSH1 0x1 PUSH1 0xA0 SHL SUB DUP2 AND DUP2 EQ PUSH2 0xD26 JUMPI PUSH1 0x0 DUP1 REVERT JUMPDEST PUSH4 0x4E487B71 PUSH1 0xE0 SHL PUSH1 0x0 MSTORE PUSH1 0x11 PUSH1 0x4 MSTORE PUSH1 0x24 PUSH1 0x0 REVERT JUMPDEST DUP1 DUP3 MUL DUP2 ISZERO DUP3 DUP3 DIV DUP5 EQ OR PUSH2 0xCCB JUMPI PUSH2 0xCCB PUSH2 0xE23 JUMP JUMPDEST PUSH1 0x0 DUP3 PUSH2 0xE6D JUMPI PUSH4 0x4E487B71 PUSH1 0xE0 SHL PUSH1 0x0 MSTORE PUSH1 0x12 PUSH1 0x4 MSTORE PUSH1 0x24 PUSH1 0x0 REVERT JUMPDEST POP DIV SWAP1 JUMP JUMPDEST DUP2 DUP2 SUB DUP2 DUP2 GT ISZERO PUSH2 0xCCB JUMPI PUSH2 0xCCB PUSH2 0xE23 JUMP JUMPDEST PUSH1 0x0 PUSH1 0x20 DUP3 DUP5 SUB SLT ISZERO PUSH2 0xE97 JUMPI PUSH1 0x0 DUP1 REVERT JUMPDEST DUP2 CALLDATALOAD DUP1 ISZERO ISZERO DUP2 EQ PUSH2 0xD26 JUMPI PUSH1 0x0 DUP1 REVERT JUMPDEST PUSH1 0x0 DUP1 PUSH1 0x40 DUP4 DUP6 SUB SLT ISZERO PUSH2 0xEBA JUMPI PUSH1 0x0 DUP1 REVERT JUMPDEST POP POP DUP1 CALLDATALOAD SWAP3 PUSH1 0x20 SWAP1 SWAP2 ADD CALLDATALOAD SWAP2 POP JUMP JUMPDEST PUSH1 0x0 PUSH1 0x20 DUP3 DUP5 SUB SLT ISZERO PUSH2 0xEDB JUMPI PUSH1 0x0 DUP1 REVERT JUMPDEST DUP2 CALLDATALOAD PUSH3 0xFFFFFF DUP2 AND DUP2 EQ PUSH2 0xD26 JUMPI PUSH1 0x0 DUP1 REVERT JUMPDEST PUSH4 0x4E487B71 PUSH1 0xE0 SHL PUSH1 0x0 MSTORE PUSH1 0x32 PUSH1 0x4 MSTORE PUSH1 0x24 PUSH1 0x0 REVERT JUMPDEST PUSH1 0x0 JUMPDEST DUP4 DUP2 LT ISZERO PUSH2 0xF1F JUMPI DUP2 DUP2 ADD MLOAD DUP4 DUP3 ADD MSTORE PUSH1 0x20 ADD PUSH2 0xF07 JUMP JUMPDEST POP POP PUSH1 0x0 SWAP2 ADD MSTORE JUMP JUMPDEST PUSH1 0x0 DUP2 MLOAD DUP1 DUP5 MSTORE PUSH2 0xF40 DUP2 PUSH1 0x20 DUP7 ADD PUSH1 0x20 DUP7 ADD PUSH2 0xF04 JUMP JUMPDEST PUSH1 0x1F ADD PUSH1 0x1F NOT AND SWAP3 SWAP1 SWAP3 ADD PUSH1 0x20 ADD SWAP3 SWAP2 POP POP JUMP JUMPDEST PUSH1 0x60 DUP2 MSTORE PUSH1 0x0 PUSH2 0xF67 PUSH1 0x60 DUP4 ADD DUP7 PUSH2 0xF28 JUMP JUMPDEST PUSH1 0x20 DUP4 DUP3 SUB DUP2 DUP6 ADD MSTORE DUP2 DUP7 MLOAD DUP1 DUP5 MSTORE DUP3 DUP5 ADD SWAP2 POP DUP3 DUP2 PUSH1 0x5 SHL DUP6 ADD ADD DUP4 DUP10 ADD PUSH1 0x0 JUMPDEST DUP4 DUP2 LT ISZERO PUSH2 0xFB7 JUMPI PUSH1 0x1F NOT DUP8 DUP5 SUB ADD DUP6 MSTORE PUSH2 0xFA5 DUP4 DUP4 MLOAD PUSH2 0xF28 JUMP JUMPDEST SWAP5 DUP7 ADD SWAP5 SWAP3 POP SWAP1 DUP6 ADD SWAP1 PUSH1 0x1 ADD PUSH2 0xF89 JUMP JUMPDEST POP POP DUP1 SWAP6 POP POP POP POP POP POP DUP3 PUSH1 0x40 DUP4 ADD MSTORE SWAP5 SWAP4 POP POP POP POP JUMP JUMPDEST PUSH1 0x0 DUP3 MLOAD PUSH2 0xFE1 DUP2 DUP5 PUSH1 0x20 DUP8 ADD PUSH2 0xF04 JUMP JUMPDEST SWAP2 SWAP1 SWAP2 ADD SWAP3 SWAP2 POP POP JUMP JUMPDEST PUSH1 0x0 PUSH1 0x20 DUP3 DUP5 SUB SLT ISZERO PUSH2 0xFFD JUMPI PUSH1 0x0 DUP1 REVERT JUMPDEST POP MLOAD SWAP2 SWAP1 POP JUMP JUMPDEST PUSH1 0x20 DUP2 MSTORE PUSH1 0x0 PUSH2 0xD26 PUSH1 0x20 DUP4 ADD DUP5 PUSH2 0xF28 JUMP JUMPDEST PUSH1 0x0 PUSH2 0x100 PUSH2 0x103A DUP4 DUP10 MLOAD DUP1 MLOAD PUSH1 0x1 PUSH1 0x1 PUSH1 0xA0 SHL SUB AND DUP3 MSTORE PUSH1 0x20 SWAP1 DUP2 ADD MLOAD SWAP2 ADD MSTORE JUMP JUMPDEST PUSH1 0x20 DUP9 ADD MLOAD PUSH1 0x40 DUP5 ADD MSTORE PUSH1 0x40 DUP9 ADD MLOAD PUSH1 0x60 DUP5 ADD MSTORE PUSH2 0x106E PUSH1 0x80 DUP5 ADD DUP9 DUP1 MLOAD PUSH1 0x1 PUSH1 0x1 PUSH1 0xA0 SHL SUB AND DUP3 MSTORE PUSH1 0x20 SWAP1 DUP2 ADD MLOAD SWAP2 ADD MSTORE JUMP JUMPDEST PUSH1 0x1 PUSH1 0x1 PUSH1 0xA0 SHL SUB DUP7 AND PUSH1 0xC0 DUP5 ADD MSTORE PUSH1 0xE0 DUP4 ADD DUP2 SWAP1 MSTORE DUP3 ADD DUP4 SWAP1 MSTORE PUSH2 0x120 DUP4 DUP6 DUP3 DUP6 ADD CALLDATACOPY PUSH1 0x0 DUP4 DUP6 ADD DUP3 ADD MSTORE PUSH1 0x1F SWAP1 SWAP4 ADD PUSH1 0x1F NOT AND SWAP1 SWAP2 ADD SWAP1 SWAP2 ADD SWAP6 SWAP5 POP POP POP POP POP JUMP INVALID LOG2 PUSH5 0x6970667358 0x22 SLT KECCAK256 0xFC 0x4E AND 0xB5 0x2B PC SWAP6 RETURNDATACOPY STOP DUP1 PUSH31 0x73BEA0E7195DF31A84EABA85D595CB8B047C67514664736F6C634300081400 CALLER "},"methodIdentifiers":{"BPS_DENOMINATOR()":"e1a45218","FEE_BPS()":"bf333f2c","feeRecipient()":"46904840","permit2()":"12261ee7","swap((address,address,uint256,uint256,uint24,uint256,bool))":"25e81a50","swapRouterV3()":"b631e80b","swapWithPermit((address,address,uint256,uint256,uint24,uint256,bool),bytes,bytes)":"c0270a50","universalRouterV4()":"776ca801"}}}}}